:020000040800F2
:1000000000200020DD310008352C0008372C0008C6
:1000100000000000000000000000000000000000E0
:10002000000000000000000000000000392C000863
:1000300000000000000000003B2C00083D2C0008E0
:100040002D320008000000002D3200082D3200087B
:100050002D3200082D3200082D3200082D32000804
:1000600000000000452C00082D3200082D32000849
:100070002D3200082D3200082D320008000000004B
:100080002D32000800000000000000002D320008A2
:10009000000000002D3200082D3200082D3200082B
:1000A0002D3200082D3200082D3200082D320008B4
:0800B0002D32000800000000E1
:1000B8000023C25C0133002AFBD1581E70470000A0
:1000C80002B4714649084900095C49008E4402BCE3
:1000D8007047C046002934D00123002210B488425A
:1000E8002CD301242407A14204D2814202D209015F
:1000F8001B01F8E7E400A14204D2814202D2490080
:100108005B00F8E7884201D3401A1A434C08A04222
:1001180002D3001B5C0822438C08A04202D3001BB8
:100128009C082243CC08A04202D3001BDC082243CF
:10013800002803D01B0901D00909E3E7100010BC0F
:10014800704701B5002000F05FF802BD0029F8D023
:1001580003B5FFF7C1FF0EBC4243891A1847C046D2
:10016800002941D010B404004C40A44601230022C9
:10017800002900D54942002800D5404288422CD3A6
:1001880001242407A14204D2814202D209011B01A1
:10019800F8E7E400A14204D2814202D249005B00A0
:1001A800F8E7884201D3401A1A434C08A04202D308
:1001B800001B5C0822438C08A04202D3001B9C0849
:1001C8002243CC08A04202D3001BDC0822430028AB
:1001D80003D01B0901D00909E3E710006446002C8D
:1001E80000D5404210BC704701B5002000F00CF863
:1001F80002BDC0460029F7D003B5FFF7B3FF0EBC18
:100208004243891A1847C0467047C0460100343136
:1002180038C9043B9C461D60A646010020313CC9F4
:1002280090469946A246AB4601000831FCC9416890
:100238000068E54600BDC0467047C0467047C046E6
:100248007047C0467047C0467047C0467047C046B2
:100258007047C0467047C0467047C0467047C046A2
:1002680001B401A801B585B0FFB408A841464A46C3
:1002780053465C4665463EC001A83EC80F980090AC
:1002880000230CB401A903F039F9109B12B01847E8
:1002980001B401A801B585B0FFB408A841464A4693
:1002A80053465C4665463EC001A83EC80F9800907C
:1002B80000230CB401A903F052F9109B12B018479F
:1002C80001B401A801B585B0FFB408A841464A4663
:1002D80053465C4665463EC001A83EC80F9800904C
:1002E80000230CB401A903F05BF9109B12B0184766
:1002F80001B401A801B585B0FFB408A841464A4633
:1003080053465C4665463EC001A83EC80F9800901B
:1003180000230CB401AB03F018F9109B12B0184776
:1003280001B401A801B585B0FFB408A841464A4602
:1003380053465C4665463EC001A83EC80F980090EB
:1003480000230CB401AA03F087F9109B12B01847D8
:1003580010B5064C2378002B07D1054B002B02D093
:10036800044800E000BF0123237010BD6C0000208A
:1003780000000000CC3E0008044B10B5002B03D051
:100388000349044800E000BF10BDC046000000005B
:1003980070000020CC3E0008F0B589B0142200217E
:1003A80003A802F040FF02212B4B01265A6BA0251F
:1003B8000A435A635A6B00240A400092009A5A6B07
:1003C80049180A435A635A6B03270A40C02101920D
:1003D800019A5A6BED0532435A635B6B0022334036
:1003E80002931E480902029B01F0DCF90022280052
:1003F800D82101F0D7F91A4B03A91A480393049797
:10040800059401F01DF9C02303A91B0213480393A7
:1004180004960594069401F013F99823280003A97B
:10042800039304960594069401F00AF940232800E2
:10043800039303A92F3B04930594069401F000F954
:10044800812328001B0203A903930497059401F054
:10045800F7F809B0F0BDC04600100240000800508F
:100468003F0300000004005010B5134B134C012249
:100478002360134B200063600023E260A3602361C4
:100488006361A361E361236201F058FB002801D096
:1004980002F0CAFB0021200001F0A6FB002801D0D1
:1004A80002F0C2FB0021200001F0C4FB002801D0AB
:1004B80002F0BAFB10BDC0460058004048010020B9
:1004C800BC7D701010B5040088B01422002103A868
:1004D80002F0A9FE114B22689A421DD10122104C4C
:1004E800A020636B03A913436363636BC0051340C8
:1004F8000193019BC0235B010393122304930C3BDC
:10050800079301F09DF88022E36BD2031343E36362
:10051800E36B13400293029B08B010BD00580040E3
:1005280000100240E0221148114B10B503608223ED
:10053800D200C26002225B00436000230261FF32E6
:10054800FF328261F13AFF3A83604361C26103621C
:1005580043628362093A03630833C262436301F06A
:1005680079FC002801D002F05FFB10BD9C0100203F
:100578000030014010B5040088B01422002103A8FF
:1005880002F051FE104B22689A421AD180210F4B7B
:1005980049011A6CA0200A431A641A6CC0050A4063
:1005A80001210192019A5A6B0A435A635B6B0B4013
:1005B8000293029B242303A90393223B049301F093
:1005C8003FF808B010BDC04600300140001002409E
:1005D80010B588B01022002104A802F024FE0C22D5
:1005E800002101A802F01FFE144C154B154A236088
:1005F800002320006360A360E2602361A36101F02F
:10060800DBFD002801D002F00FFB802320005B01F6
:1006180004A9049301F006FE002801D002F004FBAF
:10062800202301930023200001A9039301F092FEE7
:10063800002801D002F0F8FA08B010BD000200202E
:1006480000040040FFFF0000074B026882B09A4296
:1006580008D10221054BDA6B0A43DA63DB6B0B40E6
:100668000193019B02B07047000400400010024053
:1006780010B5184B184C0C222360E1235B02636011
:1006880000232000A360E36023616261A361E3614A
:1006980023626362A36202F0ABF8002801D002F083
:1006A800C3FA0021200002F01DF9002801D002F051
:1006B800BBFA0021200002F035F9002801D002F031
:1006C800B3FA200002F0F0F8002801D002F0ACFAEA
:1006D80010BDC046003801404C02002010B504008F
:1006E8008EB01422002103A802F09DFD18220021DB
:1006F80008A802F098FD164B22689A4225D10123DA
:1007080008A8089300F0F2FE002801D002F08CFA45
:100718008021104BC9011A6C0F480A431A641A6CDD
:100728000A400192019A0222596B114359635B6B8B
:1007380003A913400293029BC0230393002304924E
:1007480005930693079300F07BFF0EB010BDC046DB
:100758000038014000100240000400509A4200D2C4
:10076800885470477047F0B591B00593169B189D53
:10077800039004910292002B01D110339D43202253
:100788002B00134061260193154200D04126002713
:10079800F6B20A3E17991698FFF7D8FCCAB2931911
:1007A800DBB2092901D83032D3B208AABB54169B50
:1007B800179A7C1C934201D3202C25D102232A00AE
:1007C8001A40082607921D4209D1EB0707D50C23CA
:1007D8002B405A425341DE1D3023A64217D8EB0660
:1007E80009D5179BB4421CD1102B14D0013C3023DF
:1007F80008AA13550134202C23D06B0727D52B23A7
:1008080008AA135501341DE027001690C2E708AA6C
:10081800A3540134E1E7019B023C002B08D0582384
:1008280007E0102B08D1019B002B08D1202C08D001
:10083800782308AA13550134202CD8D101E0202CA4
:10084800EDD12024029BAD0716D1250009E02B0726
:10085800F8D52023D4E72020059B0499039FB847A7
:100868000135029B1A1B5219AE42F4D80027A64242
:1008780000D3371B029BFB1806930194069B039F2A
:10088800E518019BEA1A013B0193019908ABC85C82
:10089800059B0499B847019B002BEFD1079B002BC0
:1008A80005D0029BEC1A029B1D19A64202D828000B
:1008B80011B0F0BD2A002020059B0499039DA8478C
:1008C8000134F0E7F0B58DB00700129D069105924E
:1008D8000793002900D1814F0024A2E0079B013330
:1008E8000793252806D02200059B0699661CB84761
:1008F800340096E0002301200826079A0799127809
:1009080001312B2A2CD021D8202A2BD0232A2BD0D6
:100918006C2A03D18022520007911343079A10785A
:10092800013207927828DED863281FD862282ED093
:10093800632844D02528D6D05828D4D110229343F0
:100948001A00202313430C22934329E02D2A04D0B4
:10095800302ADDD103430791CFE702221343FAE798
:100968000422FBE73343F6E71022F7E701000122F0
:100978006439C9B28A405A490A420BD1732861D0F6
:100988007028B0D121221343029310230CE01022C7
:100998009343D8E710229343692801D06428D2D121
:1009A800DA053ED502930A23019308CD220000936D
:1009B8003800059B0699FFF7D6FE040031E00222B5
:1009C80019001140099101212600089113420AD10A
:1009D800E61D220020200134059B0699B847B44241
:1009E800F7D10923089301CD059B32000699C0B2BF
:1009F800B847099B741C002B13D02200089E07E0FF
:100A0800531C09932020059B0699B847099A01367B
:100A1800072EF5D90822089900238A4200D3531AD1
:100A2800E418079B1878002800D057E7059B220098
:100A38009C4200D35A1E0020059B0699B847200007
:100A48000DB0F0BD2A0002CA0A920A000D000991F1
:100A5800013A2978002901D095420BD1099A190049
:100A6800AD1A022211400B91134212D02E000894A5
:100A7800089C16E00135ECE7059B2020089A0699AA
:100A8800B8473300661B9A1908925E1C072BF3D9E6
:100A9800EEE72B00F6E72200059B0699651CB84790
:100AA8002C00099B089A9B1A185D0028F3D10B9B10
:100AB800002B11D0220005E0551C2020059B06992B
:100AC800B8472A00331BD318072BF5D9082200236F
:100AD800B24200D3931BE4180A9DA2E76D070008F1
:100AE800210812000EB43FB5012207AC08CC064D10
:100AF80001000094280052420394FFF7E3FE04B07B
:100B080030BC08BC03B018476507000801210A4B30
:100B180082B01A6C0A431A641A6C0A408021009247
:100B2800009ADA6B49050A43DA63DB6B0B400193E1
:100B3800019B02B07047C046001002408068400721
:100B4800C00F70477047704710B5806AFFF7FBFF0A
:100B580010BD70474023806A10B5826D13438365CA
:100B68000423C26D1343C365FFF7F3FF10BD0000F4
:100B7800502370B5846AA26D1A422DD1A26DB1338B
:100B8800FF331343A365C02325681B01EA681A4293
:100B980015D1A37E002B12D12B681B070FD5280077
:100BA800FFF7CCFF00280ED10C226B6893436B60D3
:100BB800A26D0F4B1A400433FF331343A365200083
:100BC800FFF7C0FF70BD2023A26D1343A365012367
:100BD800E26D1343E365F2E7A36DDB0603D520005E
:100BE800FFF7B7FFEEE7236D5B6B9847EAE7C04670
:100BF800FEFEFFFF70B5056804002800FFF79EFFA2
:100C0800002801D1002070BDAB689B0705D4AA68F5
:100C18000F4B1A4010231343AB6000F077FF0426F4
:100C2800050023689B683342ECD000F06FFF401B3F
:100C38000228F6D923689B683342F2D0102301209A
:100C4800A26D1343A365E36D0343E365DBE7C04689
:100C5800E8FFFF7F0023F7B502680193916801332D
:100C68000400194201D00020FEBD906822490842C4
:100C780008D01022A16D0A43A265E26D134301203A
:100C8800E365F1E791681D4F39400B4393601C4BB6
:100C98001B681B0221D4637E012BE4D000F036FFD1
:100CA80001250600226813682B42DCD193682B4289
:100CB80003D193683B402B43936000F027FF801BD0
:100CC8000228EFD923681B682B42EBD11023A26DB1
:100CD8001343A365E36D2B43D1E70A4B0A49186810
:100CE800FFF7F8F901300190019B002BD3D0019B4D
:100CF800013B0193F8E7C04617000080E8FFFF7F3B
:100D08000827014008000020400D0300F7B50568DA
:100D1800040028000E000192FFF710FF02230028AC
:100D28003FD1270054373A78012A3AD0013B3B702B
:100D3800EA681A420CD1AA681A4205D0AA681A4B66
:100D48001A4002231343AB600123EA681343EB60A4
:100D58002000FFF77FFF031E23D1A16D134A114026
:100D6800802252000A43A265E065114A206D21687D
:100D7800C262104A0263104A42631C220A603B7036
:100D88004A68103313434B603200019B403100F036
:100D98002FFD03002068044A8168114004220A4399
:100DA80082601800FEBDC046E8FFFF7FFEF0FFFF2F
:100DB800790B0008510B00085D0B0008012203683D
:100DC80070B5040098689968114201D1002070BD7F
:100DD80002210842FAD105209D680540012D1ED147
:100DE8009A68134802401143032299601A6000F080
:100DF8008DFE060023689B682B42E7D000F086FE34
:100E0800801B0228F6D923689B682B42F2D0102356
:100E1800A26D1343A365E36D2B43E36506E010233E
:100E2800A16D0B43A365E36D1A43E2650120CEE78C
:100E3800E8FFFF7F70B506005436337805000224BA
:100E4800012B25D001233370FFF7D4FE041E1DD1DA
:100E5800286D831DDB7F022B07D100F011FD041ED6
:100E680003D04023AA6D1343AB6510212A682800DC
:100E780053688B435360002C0CD1FFF79FFF041E6F
:100E88000BD001212A68D3688B43D36000233370C9
:100E9800200070BDFFF792FFF3E7AA6D034B1A40DD
:100EA8000433FF331343AB65EBE7C046FEFEFFFF99
:100EB800F0B5040085B0002802D1012005B0F0BDCE
:100EC8000368DB0710D423689B075CD423681B07DF
:100ED80000D5C1E023685B0700D5F2E0E369002B89
:100EE80000D079E10020E9E73822AF4DAB68134024
:100EF800EA68102B09D1D3439B0708D12B689B03C1
:100F0800E1D56368002BDED1D7E7082BF6D0802225
:100F180063685202934211D12A6813432B6000F090
:100F2800F5FD80270600BF022B683B42CBD100F0BD
:100F3800EDFD801B6428F7D90320BFE7A021C90273
:100F48008B4208D180232968DB020B432B602B6876
:100F58001A432A60E3E72A6894490A402A602A6803
:100F680093490A402A60002BD9D100F0CFFD802791
:100F78000600BF022B683B42A5D000F0C7FD801BCE
:100F88006428F7D9D8E73822874DAB681340EA6858
:100F9800102B28D103210A40022A26D12A6852059B
:100FA80003D5E268002A00D187E769686269814849
:100FB800120201400A436A60002B0CD12B687E4A5A
:100FC8007E491340226913432B602B687C4A9B049B
:100FD8005B0FDA400A607B4B186800F04FFD002871
:100FE80000D173E769E7002BD8D0E368002B20D045
:100FF8002B68714A802713402269FF0013432B6036
:1010080080232A685B0013432B6000F07FFD0600F5
:101018002B683B4207D06A68636966491B020A402D
:1010280013436B6052E700F071FD801B0228EFD973
:1010380082E72B68644A802713402B6000F066FD26
:101048000600FF002B683B4200D13FE700F05EFD41
:10105800801B0228F6D96FE73822534DAB6813403E
:10106800182B08D12B6E9B0700D433E7A369002BFC
:1010780000D02FE721E7A2690123002A10D02A6EA9
:10108800022713432B6600F041FD06002B6E3B42FE
:1010980000D01FE700F03AFD801B0228F6D94BE785
:1010A8002A6E02279A432A6600F030FD06002B6E4E
:1010B8003B4200D10EE700F029FD801B0228F6D93B
:1010C8003AE73822384DAB681340202B08D1EB6D36
:1010D8009B0700D402E7A368002B00D0FEE6ECE6ED
:1010E80080220021EB6B52050091134208D1EB6B73
:1010F8001343EB63EB6B13400393039B01230093B0
:101108008027324E7F0033683B4215D0A368012BFD
:1011180022D1EA6D1343EB6500F0F8FC02270600C4
:10112800EB6D3B4238D0009B012B00D0D6E6EB6B31
:10113800274A1340EB63D1E633683B43336000F042
:10114800E5FC019033683B42E0D100F0DFFC019BF5
:10115800C01A0228F6D9EFE6EA6D052B05D1013B46
:101168001343EB65EA6D0123D4E701218A43EA655D
:10117800EA6D03318A43EA65002BCDD100F0C6FC45
:1011880002270600EB6D3B42CDD000F0BFFC114BAF
:10119800801B9842F6D9CFE600F0B8FC0D4B801BB7
:1011A8009842BDD9C8E6C04600100240FFFFFEFFC6
:1011B800FFFFFBFFFF80FFFFFFC7FFFF08000020C6
:1011C8000024F40004000020FFFEFFFF0070004030
:1011D800FFFFFFEF8813000038213F4DAA680A403F
:1011E800102A51D03D4A022B38D12B688027134052
:1011F8002B6000F08BFC0600BF042B683B4227D114
:10120800616A236AEA680B43354980260A4013431A
:10121800E26AB6041343226B1343A26A1202134311
:10122800EB6080232A685B0413432B608023EA6801
:101238005B051343EB6000F069FC04002B68334244
:1012480000D04FE600F062FC001B0228F6D973E6D6
:1012580000F05CFC801B0228CFD96DE62B68802645
:1012680013402B6000F052FC0400B6042B68334294
:1012780004D1EB681B4A1340EB6033E600F046FCF0
:10128800001B0228F2D957E6012B00D115E60322EC
:10129800E868216A02408A4200D00EE67022616A3C
:1012A80002408A4200D008E6FE21A26AC901014034
:1012B8001202914200D000E6F822E16A920302404D
:1012C8008A4200D0F9E5236B400F4007C01A431E3D
:1012D8009841C0B2F2E5C04600100240FFFFFFFE91
:1012E8008C80C11FFCFFFEEF382370B51D4CA2682F
:1012F8001A4205D123681C489B045B0FD84070BD77
:10130800A2681A40082A27D0A2681A40102A17D1C2
:10131800E368E168DB43E5684906490F6F322D0A47
:10132800013115409B0709D11048FEF7D3FEE1684B
:101338006843490F0131FEF7CDFEE0E70A48F4E7BC
:10134800A2681A40202A09D0A26800201340182B4E
:10135800D5D1FA20C001D2E70448D0E780200002A6
:10136800CDE7C046001002400024F40000127A00C5
:10137800F7B504000D00002801D10120FEBD0727A4
:10138800484E33683B408B422AD3226893073BD4AC
:10139800D20748D4072733683B40AB420AD93368A1
:1013A800BB432B43336000F0B1FB019033683B40F3
:1013B800AB4268D123683C4D5B076CD4FFF794FFC0
:1013C800AB683A491B051B0F9B005B581F210B405C
:1013D800D840374A374B1060186800F04FFBCDE70C
:1013E8003368BB430B43336000F090FB01903368D4
:1013F8003B40AB42C9D000F089FB019BC01A2E4B81
:101408009842F4D90320B9E72749530704D5E023C4
:101418008868DB0103438B608B6828480340A06819
:1014280003438B60B4E760681F4F032829D8FEF791
:1014380047FE20021C243B689B039ED50722BB68FD
:1014480093430343BB6000F061FB01903823BA6803
:101458001A406368DB009A429CD000F057FB019B5E
:10146800C01A154B9842F1D9CCE73B689B01E5D4EB
:1014780083E73B685B05E1D47FE73B6E9B07DDD4E0
:101488007BE7FB6DFAE700F041FB019BC01A0A4BB2
:1014980098428BD9B6E7AB68094A1340E268134310
:1014A800AB608BE70020024000100240303F00088C
:1014B800080000200400002088130000FFF0FFFF50
:1014C800FF8FFFFF064B07499B68074A5B045B0FCA
:1014D8009B005B581F2110680B40D8407047C046DE
:1014E80000100240103F000808000020F0B5036813
:1014F800050085B000209B0351D58022484C520539
:10150800E36B0090134208D1E36B1343E363E36B8F
:1015180013400393039B012300938027414E7F00D0
:1015280033683B43336000F0F1FA019033683B4283
:1015380027D0E26DC02310009B0069693A4E18401D
:101548001A4217D0884215D08022E36DE06D190049
:1015580052020243E265E26D344831400240E265DE
:10156800E165DB0706D500F0D1FA07000222E36D3A
:1015780013424DD0E36D6A69334013430020E3659D
:1015880006E000F0C3FA019BC01A0228CED9032056
:10159800009B012B03D1E36B254A1340E3632A68C0
:1015A800D30706D503241E494B6DA3436C68234318
:1015B8004B65930606D51A491E4C4B6D2340AC6803
:1015C80023434B6553040FD515492C694B6D9B007C
:1015D8009B0823434B658023DB059C4204D1802371
:1015E800CC685B022343CB6012050FD50C4A124C22
:1015F800536DE96823400B4353658023DB0199420F
:1016080004D18023D1685B020B43D36005B0F0BDE1
:1016180000F07CFA094BC01B9842A7D9B7E7C0462F
:101628000010024000700040FFFCFFFFFFFFFEFFBC
:10163800FFFFFFEFFFCFFFFFFF3FFFFF8813000013
:101648000023F0B585B00A681400DC4001D105B06C
:10165800F0BD012514009D402C4000942A4200D181
:1016680091E04A685F0094460322644622400324BE
:10167800BC40E4430194541E012C2ED88668019C7A
:101688002640CC68BC403443846044680126AC439F
:1016980025006446240934409C402C434460C568B6
:1016A800019C25408C68BC402C43C460022A16D19A
:1016B80007250F261D40AD00AE40DC08A400041924
:1016C8000294246A03962600039CA64334000E69FC
:1016D800AE402643029C266201E0032ADFD1BA40CD
:1016E8000468019D25402A43C02402606246A40282
:1016F800224248D0254A03259C08A400A4180F229A
:101708001D40ED00AA40A027266EFF059643002243
:10171800B8420CD01E4F0132B84208D01D4F0132DA
:10172800B84204D01C4F0332B84200D1023AAA4052
:10173800674632432266154C009A2668009DD243BC
:101748003543FF0201D435001540674625606668B9
:10175800009D3543BF0201D43500154067466560DA
:101768000E4C009DE66F3543BF0301D4350015408C
:101778006746E5670A4C009EE56F2E43FF0301D4D8
:1017880015402E00E66701335DE7C04600180240A9
:101798000004005000080050000C005008180240D7
:1017A80004180240002A01D0816170478162FCE779
:1017B800F0B5846CC56C6560046D002C02D0446D76
:1017C800856D65601C24056C084E25401B3CAC40AB
:1017D80077683C437460046863608368102B02D1A7
:1017E800A260E160F0BDA160E260FBE7000002409A
:1017F800F7B5451D0193EE7F04000220012E33D07A
:101808000138E877A71DFE7FB4466346F6B2009616
:101818000026834230D10130F8772568E6632868CE
:10182800009B98432860019B2000FFF7C1FF236BB2
:10183800B3421AD00E232A6813432B60636C1A68CC
:10184800D20304D58022196852000A431A60236D16
:10185800002B04D08022196852000A431A60012321
:1018680000202A6813432B60FEBD04222B68934393
:101878002B602A680A23DFE78023E363EE77F3E728
:10188800F0B5002808D0841DE37F411D022B05D048
:101898000423C3630023CB770120F0BD0E25026823
:1018A800466C1368AB4313603368104D2B403360AC
:1018B800012316689E431660026C1B331A401B3BBB
:1018C80093400B4E77683B437360C26C836C5A60DD
:1018D800036D002B05D01A682A401A60436D826D8B
:1018E8005A6001230020E377C877D6E7FFFEFFFFA1
:1018F80000000240F8B51C240427016C264A214048
:101908003C008C40166803681D6826420FD03D4293
:101918000DD01968890602D41968B943196053684B
:101928001C43036B5460002B1BD0984719E0022717
:101938003C008C40264215D03D4213D019688906D8
:1019480006D40A251968A94319600121831DD9778E
:1019580053681C4354600022431DDA77C36A9342DC
:10196800E3D1F8BD082427008F403E42F9D0254234
:10197800F7D00E251C68AC431C6001231D008D4068
:101988002900546821435160821DC363D377002224
:10199800431DDA77436BE2E70000024010B5114CB3
:1019A8001149236802000B40034323608023002071
:1019B8009B009A420ED10D4B0D49186806235843D7
:1019C800FEF788FB8022431CD200616908001040A2
:1019D800114200D110BD002B01D0013BF5E70320D7
:1019E800F8E7C04600700040FFF9FFFF080000203C
:1019F80040420F0010B5FF2403220B0021000240D3
:101A0800D20091409B012340C943934000280ADB40
:101A1800C0240B4A800880008018A40002590A409C
:101A28001343035110BD0F2210400838054A80089F
:101A380080008018C26911401943C161F2E7C046AD
:101A480000E100E000ED00E08022431E5204012086
:101A580093420DD2C021074A07485360036A09061A
:101A68001B021B0A0B4303620020072390601360CC
:101A78007047C04610E000E000ED00E070B5104B84
:101A880005001978002901D1012070BDFA208000D5
:101A9800FEF720FB0B4C01002068FEF71BFBFFF74D
:101AA800D3FF041EF0D1032DEED802000120290037
:101AB8004042FFF79FFF044B20001D60E5E7C0464A
:101AC8000000002008000020040000208023084AAD
:101AD8005B00116810B50B4303201360FFF7CEFFBE
:101AE800041E03D1FFF712F8200010BD0124FBE704
:101AF80000200240034A044B11681B785B181360EE
:101B08007047C046E002002000000020014B186822
:101B18007047C046E002002070B50400FFF7F6FFEA
:101B28000500631C02D0044B1B78E418FFF7EEFF96
:101B3800401BA042FAD370BD0000002070B504001D
:101B48000120002C3FD0250041352B78DAB2002B3C
:101B580005D12300403320001A70FEF7B3FC24237C
:101B680001212B702368E0681A68A6688A431A6006
:101B78001A4962680A401A619A6819490A409A60C3
:101B8800012821D18022120232439A605868154AEE
:101B980002435A60DA6800200A40DA606169226903
:101BA8000A43A16909020A43DA60216AE2690A4321
:101BB8001A60012219680A431A60202360642B7096
:101BC80020634234207070BD8422120232439A602E
:101BD8000228DBD1802212015A60D7E7FFFFFFF00D
:101BE800FF7FFFFF00800002F0B504004134227837
:101BF80003000F000220D6B2202A18D11D0040355C
:101C08002A78012A13D0242222701B68233A1968E3
:101C18000748914319601968014000201960196844
:101C28003943196019680A431A6026702870F0BD94
:101C3800FFEFFFFF0200F0B5413214780300E5B270
:101C48000220202C17D11C0040342678012E12D0F7
:101C5800223010701B6823381E68074F86431E60A9
:101C68001E6809023E40314319601968084318602C
:101C7800002015702070F0BDFFF0FFFFF0B50E00DA
:101C880085B015000400FFF741FFAD192D1AFFF7C5
:101C98003DFF8027254B01901B685B011B0D6B43A3
:101CA800039322689368180038403B4232D0731C73
:101CB800F8D0FFF72BFF019BC01AA8422CD3E021D4
:101CC80023685A688A435A608222616852009142A6
:101CD8000CD18021A26809028A4203D08021C90060
:101CE8008A4203D140211A688A431A608021A26A75
:101CF80089018A4206D119680D480140196019689E
:101D08000A431A60230001225D331A70002303205E
:101D18005C34237005B0F0BD039B002B00D02B0072
:101D2800039A1D00013A0392BBE7C0460800002051
:101D3800FFDFFFFFF0B51700002285B01D0002ABE2
:101D4800DA7004000E00FFF7E1FEED192D1AFFF717
:101D5800DDFE23222368009001932A4B1B6853431E
:101D68001B0D6B43039302AB2168DA1C8B681800C8
:101D7800304033423BD0C023DB009E4204D1019B5C
:101D88001B7BDBB2137013787B1CEFD0FFF7BEFE12
:101D9800009BC01AA8422CD3E02123685A688A43C2
:101DA8005A6082226168520091420CD18021A26857
:101DB80009028A4203D08021C9008A4203D1402106
:101DC8001A688A431A608021A26A89018A4206D168
:101DD80019680D480140196019680A431A60230000
:101DE80001225D331A70002303205C34237005B090
:101DF800F0BD039B002B00D02B00039A1D00013A75
:101E08000392B0E708000020FFDFFFFF70B5130062
:101E18000D0016000A00C02149010400FFF78AFFDF
:101E2800002805D020230320226E1343236670BDAB
:101E3800320029002000FFF721FF0028F2D1C0213D
:101E480033002A002000C900FFF774FF0028EED0F5
:101E5800E8E70000F8B504000120002C67D0636AA9
:101E6800002B65D1822261685200914200D0E36163
:101E780000232500A3625D352B78DAB2002B05D14B
:101E880023005C3320001A70FEF774FB0223402203
:101E98002B702168E6680B689343E0220B60D20040
:101EA8000023964248D9F02218001201964200D029
:101EB800A36282228427636852001340A2683F020B
:101EC8003A40022713432269A5693A401343012285
:101ED800676917403B438027BF002F403B43E769B2
:101EE800373217403B43276A4832174080223B432A
:101EF800A76A920117403B43102708220B60636AC8
:101F08002D0C3B40676B17403B43F0273F013E4099
:101F18003343042635402B4303434B60CB690848C1
:101F280003400020CB61012320665D342370F8BD97
:101F38000023236163619BE780204001B6E7C04628
:101F4800FFF7FFFFF0B51E00030085B05C33019377
:101F58001B7804000D0017000220012B00D17DE042
:101F68000123019A1370FFF7D1FD230000905D3320
:101F78001A78D0B2012A00D09FE0002D68D0002F37
:101F880066D002321A700023A21D23662364A5635B
:101F9800A787E78702329387D3872365E364802383
:101FA800A16822681B02994208D1402113688B431B
:101FB800136080231168DB010B4313604023116811
:101FC800194202D111680B431360E021E06863688D
:101FD800C900884244D9002B01D0012F07D12B8892
:101FE8000235D360E38FA563013B9BB2E3870225EB
:101FF8000CE0226893682B4221D0A36B1988023326
:10200800D160A363E38F013B9BB2E387E38F002B8F
:10201800EFD131002000009AFFF7F8FE002849D1DF
:10202800A368002B06D103932368DA6803929B68A0
:102038000393039B206E431E9841C0B208E0FFF74C
:1020480065FD009BC01AB042E0D3731CDED00320AC
:1020580001235D3423700023019A137005B0F0BD8D
:10206800002B01D0012F08D12B781373A36B0133F8
:10207800A363E38F013B9BB2E38702250DE023684E
:102088009A682A420DD0A26B12781A73A36B013397
:10209800A363E38F013B9BB2E387E38F002BEED171
:1020A800B7E7FFF733FD009BC01AB042F5D3731CA6
:1020B800F3D0CCE720232366B2E70220C8E700006C
:1020C80001000300012010B53D310C78E2B28442D2
:1020D80015D1001808701B680A498B4202D00A49BA
:1020E8008B420DD19A6809490A40062A06D0073959
:1020F8008A4203D0012219680A431A60002010BDE1
:102108001968F9E7002C01400004004007000100AD
:102118000368084A196A114207D1196A064A114226
:1021280003D101211A688A431A6001233D300370E4
:1021380000207047111100004404000010B5184C2D
:102148000368A0420AD0174A904207D0164A904224
:1021580009D1164A1A40CB6813430AE07022934308
:102168004A681343F5E7124A9042F2D0114A904266
:10217800EFD0802293434A69134303608B68C3629C
:102188000B688362A04205D0094B984202D0094BE4
:10219800984201D10B6903630123436110BDC04616
:1021A800002C01400004004000200040FFFCFFFF1D
:1021B800004401400048014070B504000120002C93
:1021C80023D025003D352B78DAB2002B05D123002A
:1021D8003C3320001A70FEF737FA02232B70206870
:1021E800211DFFF7ABFF22000123002048321370A6
:1021F80047340A3A137053709370D3701371537144
:102208009371D371137223702B7070BD30B58468CD
:10221800034D0A431B022C4013432343836030BD04
:10222800FF00FFFFF8B5050002223C352C780300BB
:102238001000012C1BD01E0001383D36287032706A
:102248001C68414AA3681340A3600B68602B4ED0FA
:102258002DD8402B62D013D8202B0BD008D81022B1
:102268001900914306D00123337000232B70F8BD69
:10227800302BF8D1A26835490A401343072228E0D9
:10228800502BF0D14A68CB68216A276A1B01874323
:102298002762F027A069B84303430A2081430A4311
:1022A800A3612262294BA2681A40572311E08022B9
:1022B800520193420FD08022920193420DD0702B8D
:1022C800D1D1CB684A6820008968FFF79FFF772340
:1022D800A2681343A3600020C5E7CB684A682000C2
:1022E8008968FFF793FF8023A268DB01F1E71020DC
:1022F8004B68CA68216A164F81432162A06912039C
:1023080038400243A020216A1B0181430B43A2618C
:102318002362A2680D4B1A406723DAE74A68CB6844
:10232800216A276A1B0187432762F027A069B843FF
:1023380003430A2081430A43A3612262034BA26834
:102348001A404723C5E7C0468800CEFF8FFFCFFF5E
:10235800FF0FFFFFF0B5040002223C34257803008C
:102368001000012D1FD01D003D352A701A680E4E31
:1023780053689068B24203D10C4F3B404F683B43CF
:102388007027BB430F683B435360B24202D0084BEF
:102398009A4204D1802398438B68184390600123A4
:1023A80000202B702070F0BD002C0140FFFF0FFFB4
:1023B8000004004070B504002569A168036829433A
:1023C8006569C26929431868494D1143284001438A
:1023D800196059684748256A0140E0680143596017
:1023E800A16998682943444D284001430F2099600A
:1023F800D96A8143606A0143D96240498B4215D149
:1024080003213F4B5B6D0B40013B022B60D83D49DC
:10241800C85C80231B029A422FD1082856D8FDF7A2
:102428004FFE5B550E550B5555550F0036495B1839
:10243800591E8B411801ECE7FEF756FF4EE0334A70
:10244800616A334B49001000C95AFDF743FE6568BD
:1024580040006B08C0182900FDF73CFE02002D4B18
:10246800103A9A4232D80F23020000079A4393B2D7
:10247800400F22680343D36032E0082826D8FDF7CE
:102488001FFE1A2505251F25252522001F48626ADB
:102498001F4B5200D15AFDF71DFE65686B08C01826
:1024A8002900FDF717FE02001A4B103A9A420DD880
:1024B8002368D86014E0FFF705F8002810D0E6E795
:1024C800FEF712FFF9E780200002E0E7012008E0AC
:1024D80080231B029A42EED1FEF7F4FF021EAFD111
:1024E80000200D4BA36600236367A36770BDC04639
:1024F800F369FFCFFFCFFFFFFFF4FF110038014062
:1025080000100240E43E000800BCFFBF0024F400B5
:10251800E83E0008EFFF000001000100836A30B5C3
:10252800DA0706D50168284C4A682240C46A224363
:102538004A609A0706D50168244C4A682240046B11
:1025480022434A605A0706D50168214C4A6822404E
:10255800446B22434A601A0706D501681D4C4A6835
:102568002240846B22434A60DA0606D501681A4C79
:102578008A682240C46B22438A609A0606D501689D
:10258800164C8A682240046C22438A605A0610D589
:102598000168134D4A68446C2A4022434A608022ED
:1025A8005203944205D14A680E4C2240846C22435F
:1025B8004A601B0606D502680B4953680B40C16C7C
:1025C8000B43536030BDC046FFFFFDFFFFFFFEFF1A
:1025D800FFFFFBFFFF7FFFFFFFEFFFFFFFDFFFFFB7
:1025E800FFFFEFFFFFFF9FFFFFFFF7FFF8B50400B6
:1025F8000D0017001E002268D3692B405B1B59424F
:102608004B41BB4201D0002029E0069B0133F3D0A7
:10261800FFF77CFA069B801B984201D8002B1FD13C
:10262800EFF31080012282F310882168204D0B6897
:102638002B400B6080F31088EFF3108082F3108832
:1026480021688B6893438B6080F3108823001F32C6
:1026580088331A605A600023032084342370F8BD3D
:1026680023681A685207C6D58022D9691201114217
:10267800C1D01A62EFF31080012282F3108821681A
:102688000B4D0B682B400B6080F31088EFF3108024
:1026980082F3108821688B6893438B6080F31088DD
:1026A800220020238832136053609360D3E7C0462A
:1026B8005FFEFFFFF0B51700020087B08832059370
:1026C800136804000D000220202B45D10138002991
:1026D80042D0002F40D08023A1685B01994204D1E9
:1026E8002369002B01D1054236D1230000269033FF
:1026F8001E6021231360FFF709FA230054331F805B
:10270800023303931F808023A26804905B019A42DE
:1027180004D12369B34201D12E001D002300563392
:102728001B889AB2002B0CD1059B402100932000F6
:10273800049BFFF75BFF00280DD12023883423601A
:102748000AE0059B0022009380212000049BFFF7EC
:102758004DFF002802D0032007B0F0BD2268002DED
:102768000BD133880236DB05DB0D9362039B039A9A
:102778001B88013B9BB21380D0E72B78013593620D
:10278800F4E70000030073B50026040090331E60D0
:10279800FFF7BCF9236805001B681B0719D42368D9
:1027A8001B685B070AD58021104B0022009320008C
:1027B8002B00C903FFF71AFF002815D122000020BB
:1027C8002023883213605360E066206784342070C9
:1027D8000BE08021054B32000093890303002000A1
:1027E800FFF704FF0028DAD0032076BDFFFFFF01C2
:1027F80070B5041E01D1012070BD050088352B6815
:10280800002B04D1020084321370FDF767FF2423E4
:10281800012122682B60136820008B431360FFF7A7
:10282800C9FD0128E7D0A36A002B02D02000FFF7DA
:1028380075FE236807495A6820000A402A215A6011
:102848009A688A439A60012219680A431A60FFF756
:1028580099FFD1E7FFB7FFFFF7B50700436E040004
:102868006A37002B04D10120388068342080F7BDF6
:1028780003680B4E9A689B680A4D5B0FF05CE95C35
:10288800C0000192FDF76CFC019B38801B015B0FB7
:10289800F05CE95CC000FDF763FC80B2E5E7C04688
:1028A800083F0008003F000870B50400843422780F
:1028B80003000220012A11D01D0024220126883598
:1028C8002A601A6811681068B04310600448014013
:1028D80000205866202311602B60207070BDC04610
:1028E800FFFFFFDFF8B5050084350B0029780222C9
:1028F800012915D006000121046888362232326089
:10290800276822688A432260A168C900C908194358
:10291800A160FFF7A1FF20230022276033602A70FF
:102928001000F8BDF8B5050084350A00297802239F
:10293800012915D006000121046888362233336046
:10294800276823688B432360A168064B194011430D
:10295800A160FFF781FF20232760336000232B70DD
:102968001800F8BDFFFFFFF170470000184B4288C0
:1029780030B59A4202D100234380038104894288FA
:102988008C4206D801230181828043810132428032
:1029980030BDC37A002BF9D1837A5B00DBB20F2BF1
:1029A80001D88372F2E7012381888372C388994230
:1029B8000CD2FA25ED004D19EB1A9BB203800123C6
:1029C8006409C1800481C3720373DFE7CB1AF4E79B
:1029D800CF0700000023020010B50488180005493D
:1029E800E31801309BB2C0B28B42F9D900231373AC
:1029F80010BDC0465FEA0000007B704710B5FA239F
:102A080004001E22216008009B000249FFF752FEC5
:102A1800200010BD703F0008F0B587B004AF060075
:102A28000C007A60FFF772F8164D3860E30706D499
:102A3800154DA30703D4154D640700D5144D7868C8
:102A4800FDF736FB6B461F30C008C0001B1A9D46B9
:102A58007B6804AC03930F4B019502930E4B0F4A0E
:102A680000933B680E492000FEF73CF82000FDF774
:102A78001FFBFA2382B2210030689B00FFF71AFE81
:102A8800BD46F7BD963F00088F3F00089D3F0008F0
:102A9800A43F0008943F0008BA3F0008BC3F000864
:102AA800AB3F000810B592B03422002105A800F011
:102AB800BAFB1022002101A800F0B5FB802080009D
:102AC800FEF76CFF80235B000893002309930E93A5
:102AD80008330F9380239B02109380230224402203
:102AE8009B0505A805940A920C940D941193FEF782
:102AF800DFF9002801D072B6FEE70723039004909F
:102B0800210001A801930294FEF732FC002801D0AD
:102B180072B6FEE712B010BD30B5C3B0FEF7D6FFEF
:102B2800FFF7C0FFFDF738FCFDF7FCFCFDF7A0FD43
:102B3800FDF79AFCFDF74CFD364902A8FFF75EFF4A
:102B48000121354A02A8FFF767FF242200210CA8BB
:102B580000F069FB314A0CA915A800F0DAFAA022A6
:102B68008023D20515A91EA800F0DDFAA0220823AB
:102B7800D2051EA927A800F0E1FAA0221023D20549
:102B880027A930A800F0E5FAA0224023D20530A9F1
:102B980039A800F0E9FA39A903A800F0F0FA1F24CF
:102BA80000221F4B1100019303A82300009400F09A
:102BB8005AFA1C4B00222021019303A83F230094BA
:102BC80000F051FAF8231B0200224021019303A8C8
:102BD8005F23009400F047FAFC233F25DB00002226
:102BE8006021019303A87F23009400F03CFA23009E
:102BF8002022002103A80194009500F034FA002354
:102C08002022019311002B00009503A800F02BFA55
:102C1800FEE7C0464C020020BE3F00089C01002091
:102C2800E0FF0000FFFF000072B6FEE7FEE7FEE7E8
:102C38007047704710B5FEF75DFF10BDF8B5154D2C
:102C480080272800FEF7F6F8134C7F002000FFF7D6
:102C58005FFA1248FEF74EFE8022114E52003100F4
:102C68002800FEF753F82000FFF72AFA00240D4D3C
:102C780063002800F15AFFF779FE2800FFF7BCFE31
:102C8800002802D02800FFF7A5FE0134BC42EED18F
:102C9800F8BDC046E40000200002002088000020A3
:102CA800E40200200C00002010B501228188006891
:102CB800FEF778FD10BD10B5002281880068FEF788
:102CC80071FD10BD0C3010B50400FFF7F4FF64204F
:102CD800FEF722FF2000FFF7E7FF3220FEF71CFF78
:102CE80010BD73B504006B46051D2800DE1DD971A3
:102CF800FFF7E1FF20001430FFF7DDFFFA23310072
:102D080001229B002068FFF71DF92800FFF7CCFF80
:102D180073BD73B504006B46051D2800DE1DD9710F
:102D2800FFF7C9FF20001430FFF7BEFFFA23310078
:102D380001229B002068FFF705F92800FFF7B4FF80
:102D480073BD13B50400684643602300009202C3B4
:102D580006C806C3230004AA0C3303CA03C303CA64
:102D680003C303CA03C32000FFF7ACFF11212000EF
:102D7800FFF7B7FF7820FEF7CFFEB1212000FFF75D
:102D8800B0FF01212000FFF7C4FF2C212000FFF72E
:102D9800C0FF2D212000FFF7BCFFB2212000FFF764
:102DA800A0FF01212000FFF7B4FF2C212000FFF72E
:102DB800B0FF2D212000FFF7ACFFB3212000FFF763
:102DC80090FF01212000FFF7A4FF2C212000FFF72E
:102DD800A0FF2D212000FFF79CFF01212000FFF715
:102DE80098FF2C212000FFF794FF2D212000FFF7EA
:102DF80090FFB4212000FFF774FF07212000FFF7A0
:102E080088FFC0212000FFF76CFFA2212000FFF7F8
:102E180080FF02212000FFF77CFF84212000FFF7BC
:102E280078FFC1212000FFF75CFFC5212000FFF7D4
:102E380070FFC2212000FFF754FF0A212000FFF78E
:102E480068FF00212000FFF764FFC3212000FFF77F
:102E580048FF8A212000FFF75CFF2A212000FFF7A6
:102E680058FFC4212000FFF73CFF8A212000FFF70C
:102E780050FFEE212000FFF74CFFC5212000FFF78F
:102E880030FF0E212000FFF744FF36212000FFF716
:102E980028FFC8212000FFF73CFFE0212000FFF7B2
:102EA80020FF0F212000FFF734FF1A212000FFF731
:102EB80030FF0F212000FFF72CFF18212000FFF71B
:102EC80028FF2F212000FFF724FF28212000FFF7EB
:102ED80020FF20212000FFF71CFF22212000FFF700
:102EE80018FF1F212000FFF714FF1B212000FFF708
:102EF80010FF23212000FFF70CFF37212000FFF7E8
:102F080008FF00212000FFF704FF07212000FFF73A
:102F180000FF02212000FFF7FCFE10212000FFF730
:102F2800F8FEE1212000FFF7DCFE0F212000FFF76B
:102F3800F0FE1B212000FFF7ECFE0F212000FFF719
:102F4800E8FE17212000FFF7E4FE33212000FFF7F9
:102F5800E0FE2C212000FFF7DCFE29212000FFF7EE
:102F6800D8FE2E212000FFF7D4FE30212000FFF7E5
:102F7800D0FE30212000FFF7CCFE39212000FFF7DA
:102F8800C8FE3F212000FFF7C4FE00212000FFF704
:102F9800C0FE07212000FFF7BCFE03212000FFF739
:102FA800B8FE10212000FFF7B4FE2A212000FFF709
:102FB80098FE00212000FFF7ACFE00212000FFF75B
:102FC800A8FE00212000FFF7A4FE7F212000FFF7C4
:102FD800A0FE2B212000FFF784FE00212000FFF730
:102FE80098FE00212000FFF794FE00212000FFF743
:102FF80090FE9F212000FFF78CFEF0212000FFF7B4
:1030080070FE01212000FFF784FEF6212000FFF763
:1030180068FE00212000FFF77CFE3A212000FFF720
:1030280060FE05212000FFF774FE29212000FFF72C
:1030380058FE200016BD73B504006B46051D280018
:103048009E1DD980FFF737FE20001430FFF72CFEB5
:10305800FA23310002229B002068FEF773FF280044
:10306800FFF722FE73BDF0B5040085B002930AABEA
:103078001F880BAB1B8800912A2101920393FFF74D
:1030880030FE00212000FFF744FE009B2000991C21
:10309800C9B2FFF73EFE00212000FFF73AFE029B6F
:1030A8002000991CC9B2FFF734FE2B212000FFF73E
:1030B80018FE00212000FFF72CFE019B2000D91CE0
:1030C800C9B2FFF726FE00212000FFF722FEF91CF7
:1030D8002000C9B2FFF71DFE2C212000FFF701FEDA
:1030E80000212000FFF715FE0025029B009A9B1A7D
:1030F800AB420CDC05B0F0BD20000399FFF79BFF45
:103108000136019BFB1AB342F6DC0135EDE70026D8
:10311800F7E7030030B50A6034C934C334C934C38F
:1031280034C934C330BD30B50B8103004A6034C99B
:1031380034C334C934C334C934C330BD30B50B8249
:103148000300CA6034C934C334C934C334C934C36E
:1031580030BD30B50B8303004A6134C934C334C968
:1031680034C334C934C330BD30B50B840300CA61DD
:1031780034C934C334C934C334C934C330BDF0B5D9
:103188000B6891B09C464B6808AD07930B89040007
:10319800AB800A8B48690AAB0A909A80088ACE6885
:1031A8000CAA0C9690800E8CC8690EA90E908E8081
:1031B80004A8C0C9C0C002A9C0CAC0C16A4603CB1E
:1031C80003C261462000079A099BFFF7BAFD200059
:1031D80011B0F0BD0D488546FFF7C6FB0C480D49F8
:1031E8000D4A002302E0D458C4500433C4188C425A
:1031F800F9D30A4A0A4C002301E013600432A242C0
:10320800FBD300F019F8FFF787FCFEE70020002049
:10321800000000206C000020E44000086C00002042
:1032280020060020FEE703008218934200D1704771
:1032380019700133F9E7000070B500260C4C0D4DEC
:10324800641BA410A64209D1002600F03BFE0A4CDC
:103258000A4D641BA410A64205D170BDB300EB58FB
:1032680098470136EEE7B300EB5898470136F2E786
:10327800DC400008DC400008E0400008DC400008B2
:10328800FEE7C04603685A0004D58022120613439D
:10329800C01870475B005B08FAE7F0B585B0150009
:1032A8000E1E029026D000274B1E01930093009B10
:1032B800FB18DC0FE4186410E3000393029BE200A0
:1032C8009E183000FFF7DEFF019BA34215D0A842ED
:1032D80004D9A7420DD0631E0093E8E70398029B28
:1032E80008301818FFF7CEFF0138A84202D2671C31
:1032F800DDE70026300005B0F0BDA842E9D8F9E7BF
:1033080003000548012B06D00448022B03D00020F7
:10331800834200D1024870470F3900081939000864
:1033280005390008204B37B505008C1E002B09D045
:10333800200001A900E000BF002808D100230920CF
:103348002B613EBD194B1A481B1ADB100193220052
:103358000199FFF7A2FF041EF0D0FFF793FF6368FF
:10336800A864012B1CD0201D002B10DA01232B652B
:103378000368E864002B0EDA1801000FFFF7C0FF9E
:1033880003005A425A41092052421040D8E7FFF739
:1033980079FF0023EBE7FFF775FF03000020CFE775
:1033A80000230520CCE7C04600000000DC400008F0
:1033B800D43F0008036810B50400DA0704D450307D
:1033C8009B0719D5FCF73CFF23685B0703D4200053
:1033D800D830FCF739FF23681B0704D42000593084
:1033E800FF30FCF735FF2368DB0604D42000D93012
:1033F800FF30FCF731FF10BDFCF71EFFE4E70300C8
:103408000068002800D0C0187047704770B50500E4
:103418000C002800216CFFF785FF061E01D000F084
:10342800E7FC236C22006B61290001202B69984777
:103438000828EED00728F2D13000216CFFF7E5FF0D
:10344800201DFCF7E3FE0000F0B52B4CC368A54433
:1034580004938369050014000431402207A80593EA
:1034680000F016FD002306AE069302932800316C87
:10347800FFF758FF093407000390E4B200282FD162
:10348800F422336C31006B61520080A800F000FD1B
:103498002B692900200080AA98478E9B0290B3646C
:1034A800059B210001932A002B000120049C009613
:1034B800A047002818D1002F18D1F422300052005C
:1034C80080A900F0E5FC029B3C00082BCED0072B1E
:1034D8000AD13800316CFFF798FF07A8FCF796FE71
:1034E80010231C43B36BDAE7092303930398FB23E8
:1034F8009B009D44F0BDC04614FCFFFF70B5CB6B2C
:10350800FAB00B6404000D004022043101A800F059
:10351800BFFC01235B42009320001099FFF702FFD4
:1035280000280FD16A462100236998470600082819
:10353800F2D06846FFF73EFF062E03D1290020008F
:10354800FFF764FF09207AB070BD10B58261DA6BAD
:10355800C1601A6419000022FFF776FF10BD70B52C
:103568004369C66805000C000B64002E04D00122D4
:10357800FFF76AFF00F03CFC0A0003690100022023
:103588009847072805D00828F4D121002800FFF71C
:103598003DFF3000216CFFF738FF201DFCF736FE99
:1035A800C36810B5002B02D1FFF7A8FF10BDCB6B85
:1035B80000220B64FFF748FFF8E710B50400080085
:1035C8000299052813D8FCF77BFD050312030310A5
:1035D800012010BD0220002BFBD10F2AF9D8824010
:1035E800A218536800200B60F3E7636CFAE7022027
:1035F800EFE71FB503AB009300230A001900FFF79C
:10360800DCFF039805B000BD10B50400080002995E
:10361800052814D8FCF754FD0503130303100120F3
:1036280010BD0220002BFBD10F2AF9D882400B686D
:10363800A21853600020F3E70B686364FAE70220DE
:10364800EEE71FB503AB0093002303920A001900AD
:10365800FFF7DAFF05B000BD70B5184CD36BA54471
:10366800136404000D0017A8111D402200F010FC7F
:1036780001235B42169368462699FFF753FE0028FC
:1036880013D10C2116A86A46FFF7DBFF290016A8FC
:10369800A047002809D16946049B16AA0830984714
:1036A8000600052802D00928E5D1092616A8FFF743
:1036B80081FE300090239B009D4470BDC0FDFFFF3C
:1036C800F0B50C008BB0049303210300E56C0B40AC
:1036D8000193049E08CD0092089507AA002E2ED1CA
:1036E8001B0207935672019B07AA1172022B00D185
:1036F800A56B01220121236D1A400B4200D0F7E08F
:1037080008231840059003922B680293002B1FD1C1
:10371800009807A900F032FA00284FD1039B08301F
:10372800002B00D194E00F210098FFF762FF0E21D3
:1037380002000098FFF785FF6F4A0F2184E0190CFB
:103748005172C9B289001B046D1807930221CAE798
:10375800049B022B34D16E68083501223700A36C14
:1037680097430F210098FF18FFF743FF0023874274
:1037780006D80122029B9343DB1998429B415B4286
:103788000222012176001640029A0A4016438E4210
:103798001DD0022E60D0002E10D1019A2F1D002AB4
:1037A80013D0002B11D02800FFF76CFDA76305008C
:1037B800200000E000BF2A000028BED1092047E011
:1037C8002B8802936E880435C7E73D009CE7019A71
:1037D800002A25D1002B3DD02F686B68FF0F9A1C5B
:1037E800ECD022005832069201330AD0281DFFF788
:1037F80006FE3A00010006AB200000E000BF061EEE
:1038080028D00D210098FFF7F4FE069B2062022EB7
:1038180002D1E36223002C3306206362A56217E01D
:103828000D210098266AFFF7E4FE864212D1A36AAA
:103838009D420FD12800FFF725FD0F2102000098B7
:10384800FFF7FFFE220000210098FFF7FAFE07208D
:103858000BB0F0BD083557E72A6852005708019A9F
:10386800002A2AD1002B16D0059B002B1BD0002F35
:1038780011D1019E18E023000136B00058332818F2
:103888000693FFF7BCFD0022010006AB200000E014
:1038980000BF002808D02B68002B00DA0435013758
:1038A800BF00ED1930E7059EBE42E4D10D21009816
:1038B800FFF79FFE069B2062AEE70D210098266A5F
:1038C800FFF797FE8642E6D1A36A9D42E3D104231F
:1038D80000262363EB18A762E66263632B68B34292
:1038E80003DA0137B8002818A5E701230393D6E7C0
:1038F800002303930CE7C0460000000010B5002326
:10390800FFF7DEFE10BD10B50123FFF7D9FE10BD8D
:1039180010B50223FFF7D4FE10BDF0B50500140062
:1039280008001E00C5B0052929D8FCF7C9FB0320EB
:1039380028739C1A002B22D1AB6B92B2281D012749
:10394800B7403A4204D080CBBC466146B700C1516B
:103958000136102EF3D1A40400D4AB63002045B087
:10396800F0BDAB6B002A0AD104CB6A64F5E7130CEF
:10397800009394B2012E04D11B19102B0FD90220E9
:10398800EDE7052EFBD1009B1B19202BF7D8009AD9
:103998000F2A00D88CE0271E17D100279FE0009B34
:1039A800102BECD0002788E028005030052E06D1D7
:1039B8009343022213432B60FCF744FC82E003226A
:1039C80093432B60FCF73AFC7CE004222B681342FB
:1039D8007AD0280093432B60D830FCF737FC73E08B
:1039E800009B0F2B02D822A8FCF72CFC002FD4D068
:1039F80002A8FCF72BFC6FE001937DE0009B0F2BE6
:103A080002D822A8FCF71CFC002FA7D002A8FCF7BC
:103A18001BFCA3E7032BB2D1160C94B23319102B5D
:103A2800ADD808222B68134206D02800934359309A
:103A38002B60FF30FCF70EFC22A8FCF70BFCA96BEF
:103A4800F6000B00761A22A862008019013A06D205
:103A5800E4000C19AC6322A8FCF7FAFB7EE71E68A9
:103A6800C6500433F2E7002B89D1102A87D81022D8
:103A78002B68134206D028009343D9302B60FF30BF
:103A8800FCF7ECFB22AE3000FCF7E8FB002201213A
:103A9800AB6B08009040044202D080CB90003750B6
:103AA8000132042AF5D13000AB63FCF7D5FB55E7AA
:103AB8001F00103F102B00D874E701222B68134217
:103AC80000D071E7002F80D1012E89D122A8FCF700
:103AD800B5FB002F00D160E71024009BE41AA96B06
:103AE8000B00002C11DD0800009A6300013BD20096
:103AF8000193521A22AB9A1803681350019B0430A1
:103B0800013B00D378E7E4000B19002F12D0009A8C
:103B18007900102A00D21022103A02A8D2001218F6
:103B280010004A1E00215C5844500431013AFAD270
:103B3800FA009B18012E00D10433AB63012E00D08C
:103B48005CE722A8FCF778FB08E7027A0300002A62
:103B580011D1427AB020002A0CD0013A5A725A6820
:103B6800111D126859601A6003221A721A68100E21
:103B780012021A607047013AD2B2F6E7F0B5002394
:103B8800050087B0029103930298FFF7DEFF040057
:103B9800B02813D1039B002B0DD104AC19000E22C1
:103BA80028000094FFF709FD039B0F221900280045
:103BB8000094FFF729FD002007B0F0BD030619D4D3
:103BC800FF2386001E40002304AF0D2219002800A1
:103BD8000097FFF7F2FC049A0436B318640600D580
:103BE800931B049300230D22190000972800FFF768
:103BF8000BFDC9E703000F229343DBB2802B18D1DA
:103C080004020298FFF7A1FF802620433602B04243
:103C180001D10920D0E7002307010005020C190093
:103C28002800FFF77AFE0028F3D13742ACD00123F1
:103C3800A9E7902B0ED10D2603003340B342E8D0FC
:103C480000230F2204AF0240190028000097FFF755
:103C5800B4FCC7E7A02B0ED1FF2109010A00993B4C
:103C680083431A410A40240702D58023DB011A4303
:103C78000023190049E0B02B62D1B138042854D888
:103C8800FCF71EFA030C33404A000298FFF75DFF69
:103C9800431EDBB202000E2BEAD9BAE7002304AEBA
:103CA8000D22190028000096FFF787FC0298FFF7FD
:103CB8004CFF022480270100049B394038420AD176
:103CC8008122A04092009B18C018F83A0B0004907B
:103CD8000096FF3A8AE77F221040A040C01804905F
:103CE80002980734FFF731FFE5E70298FFF72DFF49
:103CF800F0220303120313400F22024001321A4339
:103D08000123B6E7002305211A002800FFF705FE66
:103D1800002800D138E77CE705AB009300230D228B
:103D280019002800FFF749FC2EE7FC232340B42B99
:103D380000D16EE707238022234001331203DEE718
:103D4800C02B47D1C6280CD10298FFF7FEFEF022FF
:103D58000303120313400F22024001321A430323C4
:103D680087E7C7280BD10298FFF7EFFE431EDBB2A7
:103D780002000E2B00D94CE700230421C5E7F823E5
:103D88000340C02B05D1A022B13B034001331203ED
:103D9800E4E7C8280ED10298FFF7D7FE0F230200E8
:103DA8009A43D2B2184010321203013002430A3B40
:103DB8000121AAE7C92800D02BE70298FFF7C5FE22
:103DC800F0220303120313400F22024001321A4368
:103DD8000523EDE7072203009343DBB2D02B00D085
:103DE80017E714408022013412032243CB3BDFE75C
:103DF800062010B500F02CF80120FFF741FA70B545
:103E080004000D001F2904D9162303600120404235
:103E180070BDC36B002B04D08A009B181A68002A57
:103E280008D1200000F030F82A000100200000F03E
:103E380019F8EDE7012A09D0511C03D116230360B4
:103E48000120E5E700212800196090470020DFE7FE
:103E580010B5034B01001868FFF7D1FF10BDC0462D
:103E68001C000020002370B5064D04000800110056
:103E78002B6000F01FF8431C03D12B68002B00D0E7
:103E8800236070BD1C06002010B500F00BF810BDB3
:103E9800002310B59A4200D110BDCC5CC454013344
:103EA800F8E7000058220120014B40421A60704791
:103EB8001C06002058220120014B40421A6070471E
:103EC8001C060020F8B5C046F8BC08BC9E467047E2
:0C3ED800F8B5C046F8BC08BC9E46704718
:103EE40004020800010002000400060008000A00A1
:103EF4000C001000200040008000000108040204AF
:103F04000801010101010103070100000000000094
:103F1400000000000000000000000000010000009C
:103F24000200000003000000040000000000000084
:103F3400000000000000000000000000000000007D
:103F4400000000000000000000000000010000006C
:103F5400020000000300000004000000060000004E
:103F6400070000000800000009000000496E6974A1
:103F740069616C697A696E67204C6F676765722046
:103F840077697468207370656564005741524E5DAB
:103F94002000494E464F5D2000464154414C5D008F
:103FA4004552524F525D002573256C752573257358
:103FB400257325730A005D205B004C6F676765728B
:103FC40020496E697469616C697A65640000000057
:103FD400A0E9FF7F0100000028EAFF7FB0B0A880BD
:103FE4003CEAFF7FAB029780C0EAFF7FB0A8118054
:103FF4002CEBFF7FA93F028034ECFF7F010000001F
:1040040038ECFF7FB0B0A88038ECFF7FAB08B180FC
:104014009CECFF7FB0B0A880CEECFF7FAA03B180F8
:1040240026EDFF7FA803B18012F0FF7FAA03B180C1
:104034003AF0FF7FB0AB0480DEF0FF7F01000000A8
:1040440042F1FF7FB0AB108090F1FF7F01000000D0
:10405400D8F2FF7FA907B18060F3FF7FB0B0A880DA
:10406400A2F3FF7F01000000A8F3FF7FB0B0AA8095
:10407400DCF3FF7FAB7AB28088F4FF7FAA3F3980FC
:10408400CEF4FF7FB0B0A880DAF4FF7FB0B0AA808E
:1040940014F5FF7FB0B0A88026F5FF7F0100000073
:1040A400BCF5FF7FAA0FB2801CF6FF7FB0AB0A807D
:1040B40050F8FF7FB0B0A88066F8FF7FAB3F048064
:1040C4008EFAFF7F01000000B8FAFF7FB0AB0680D4
:0840D40024FDFF7F0100000044
:0440DC008103000854
:0440E0005903000878
:1040E40001000000040000000024F40000000000AF
:1040F400000000000000010000000000200000207B
:1041040000000000E40400204C050020B405002059
:10411400000000000000000000000000000000009B
:10412400000000000000000000000000000000008B
:10413400000000000000000000000000000000007B
:0C4144000000000000000000000000006F
:04000005080031DDE1
:00000001FF
