:020000040800F2
:1000000000200020B920000831080008330800084B
:1000100000000000000000000000000000000000E0
:10002000000000000000000000000000350800088B
:100030000000000000000000370800083908000830
:10004000092100080000000009210008092100081A
:1000500009210008092100080921000809210008D8
:1000600000000000092100080921000809210008FA
:1000700009210008092100080921000800000000EA
:10008000092100080000000000000000092100080C
:1000900000000000092100080921000809210008CA
:1000A0000921000809210008092100080921000888
:0800B000092100080000000016
:1000B80002B4714649084900095649008E4402BCF9
:1000C8007047C04602B4714649084900095C4900B6
:1000D8008E4402BC7047C046002934D00123002258
:1000E80010B488422CD301242407A14204D28142AF
:1000F80002D209011B01F8E7E400A14204D28142BF
:1001080002D249005B00F8E7884201D3401A1A433B
:100118004C08A04202D3001B5C0822438C08A04272
:1001280002D3001B9C082243CC08A04202D3001B28
:10013800DC082243002803D01B0901D00909E3E7A2
:10014800100010BC704701B5002000F05FF802BD38
:100158000029F8D003B5FFF7C1FF0EBC4243891A46
:100168001847C046002941D010B404004C40A446AA
:1001780001230022002900D54942002800D5404229
:1001880088422CD301242407A14204D2814202D2FE
:1001980009011B01F8E7E400A14204D2814202D21E
:1001A80049005B00F8E7884201D3401A1A434C081B
:1001B800A04202D3001B5C0822438C08A04202D351
:1001C800001B9C082243CC08A04202D3001BDC0879
:1001D8002243002803D01B0901D00909E3E71000D6
:1001E8006446002C00D5404210BC704701B5002081
:1001F80000F00CF802BDC0460029F7D003B5FFF7A0
:10020800B3FF0EBC4243891A1847C0467047C04620
:100218000100343138C9043B9C461D60A6460100E4
:1002280020313CC990469946A246AB4601000831A8
:10023800FCC941680068E54600BDC0467047C04635
:100248007047C0467047C0467047C0467047C046B2
:100258007047C0467047C0467047C0467047C046A2
:100268007047C04601B401A801B585B0FFB408A81D
:1002780041464A4653465C4665463EC001A83EC8CC
:100288000F98009000230CB401A902F073F8109B9A
:1002980012B0184701B401A801B585B0FFB408A889
:1002A80041464A4653465C4665463EC001A83EC89C
:1002B8000F98009000230CB401A902F08CF8109B51
:1002C80012B0184701B401A801B585B0FFB408A859
:1002D80041464A4653465C4665463EC001A83EC86C
:1002E8000F98009000230CB401A902F095F8109B18
:1002F80012B0184701B401A801B585B0FFB408A829
:1003080041464A4653465C4665463EC001A83EC83B
:100318000F98009000230CB401AB02F052F8109B28
:1003280012B0184701B401A801B585B0FFB408A8F8
:1003380041464A4653465C4665463EC001A83EC80B
:100348000F98009000230CB401AA02F0BDF8109B8E
:1003580012B0184703B47146490840004900095AC9
:1003680049008E4403BC704710B5064C2378002B17
:1003780007D1054B002B02D0044800E000BF012341
:10038800237010BD3401002000000000882F0008F1
:10039800044B10B5002B03D00349044800E000BF0C
:1003A80010BDC0460000000038010020882F00085A
:1003B800017042608360704730B585B00C2200211F
:1003C80001A802F059FC184C184B04222360802322
:1003D8006261DB052200636000232C321370220067
:1003E80001253C322000A360E36023612383A376C8
:1003F800E5616362A36223636363A3631370E364C9
:1004080000F0F4FA002801D000F056F9002320008B
:1004180001A901950293039300F0F8FB002801D08D
:1004280000F04AF905B030BD500100200024014019
:1004380010B504008EB01422002103A802F01CFCA1
:100448001822002108A802F017FC164B22689A42CD
:1004580025D1802308A8DB01089301F0DDF90028E5
:1004680001D000F029F980210F4B49031A6CA02014
:100478000A431A641A6CC0050A4001210192019AC4
:100488005A6B0A435A635B6B0B400293029B03232C
:1004980003930493002303A9059300F011FD0EB004
:1004A80010BDC0460024014000100240F0B589B0DC
:1004B8001422002103A802F0DFFB02210126A02557
:1004C80000240327204BED055A6B28000A435A6382
:1004D8005A6B0A400092009A5A6B49180A435A63A9
:1004E8005A6B0A400192019A5A6BD43132435A63CB
:1004F8005B6B002233400293029B00F099FD134B83
:1005080003A9134803930497059400F0D9FCC0236A
:1005180003A91B020F4803930497059400F0D0FC2D
:10052800D823280003A9039304960594069400F0A1
:10053800C7FC812328001B0203A903930497059491
:1005480000F0BEFC09B0F0BD001002403F030000FF
:10055800000400500008005010B5134B134C012242
:100568002360134B200063600023E260A3602361D3
:100578006361A361E361236200F060FD002801D09C
:1005880000F09AF80021200000F0AEFD002801D00C
:1005980000F092F80021200000F0CCFD002801D0E6
:1005A80000F08AF810BDC04600580040B401002091
:1005B8005B3D300010B5040088B01422002103A868
:1005C80002F05AFB114B22689A421DD10122104CAD
:1005D800A020636B03A913436363636BC0051340D7
:1005E8000193019BC0235B010393122304930C3BEB
:1005F800079300F065FC8022E36BD2031343E363A7
:10060800E36B13400293029B08B010BD00580040F2
:10061800001002400160704700B593B034220021F9
:1006280005A802F029FB0021102201A802F024FBF2
:100638008020800000F0A2FD0A2340220593F633B3
:10064800089300230A9205A83F3A09930B920C934A
:1006580000F0C0FD011E01D072B6FEE7072302902C
:100668000390049001A8019301F014F8002801D028
:1006780072B6FEE713B000BD1FB500F08DF9FFF7A5
:10068800CBFFFFF713FFFFF797FE00F061F800F0CC
:10069800E5F8FFF761FF00F011F805496846FFF734
:1006A800B9FF2E21034A009B01A8FFF781FEFEE750
:1006B80090020020B401002072B6FEE77F220B48AA
:1006C80010B50B4BC26080320261802203600023A8
:1006D800D205836043618361C3610262436201F0B2
:1006E800ABF9002801D0FFF7E7FF10BD000200209A
:1006F8000028004010B5040088B01822002102A884
:1007080002F0BAFA104B22689A421BD180239B024E
:100718000293802302A89B00079301F07DF800282C
:1007280001D0FFF7C9FF8022084B1202D96D0A4396
:100738008021DA65DA6BC9000A43DA63DB6B0B40A8
:100748000193019B08B010BD002800400010024032
:100758001048114BE02210B503608223D200C2601A
:1007680080225B004360002392008261FA3A836032
:1007780003614361C361036243628362FF3A0363B7
:100788000833C262436301F0ABF9002801D0FFF7D8
:1007980093FF10BD2C0200200030014010B504006A
:1007A80088B01422002103A802F066FA104B2268D0
:1007B8009A421AD180210F4B49011A6CA0200A4392
:1007C8001A641A6CC0050A4001210192019A5A6BF9
:1007D8000A435A635B6B0B400293029B242303A9D1
:1007E8000393223B049300F06BFB08B010BDC04696
:1007F800003001400010024001210A4B82B01A6CFF
:100808000A431A641A6C0A4080210092009ADA6B33
:1008180049050A43DA63DB6B0B400193019B02B085
:100828007047C04600100240FEE7FEE77047704779
:1008380010B500F0C5F810BD0120704710B502F0E2
:10084800B5FA162303600120404210BD10B502F02E
:10085800ADFA16230360FEE77047000010B5184B89
:10086800184C0C222360E1235B0263600023200004
:10087800A360E36023616261A361E3612362636251
:10088800A36201F059FB002801D0FFF715FF0021F2
:10089800200001F0CBFB002801D0FFF70DFF00215D
:1008A800200001F0E3FB002801D0FFF705FF20003E
:1008B80001F09EFB002801D0FFF7FEFE10BDC046E8
:1008C800003801409002002010B504008EB01422B8
:1008D800002103A802F0D0F91822002108A802F08C
:1008E800CBF9164B22689A4225D1012308A8089310
:1008F80000F092FF002801D0FFF7DEFE8021104BA8
:10090800C9011A6C0F480A431A641A6C0A4001920A
:10091800019A0222596B114359635B6B03A9134077
:100928000293029BC023039300230492059306932A
:10093800079300F0C5FA0EB010BDC046003801405C
:10094800001002400004005070B5104B05001978E3
:10095800002901D1012070BDFA208000FFF7BCFBFF
:100968000B4C01002068FFF7B7FB00F08FFA041E5C
:10097800F0D1032DEED8020001202900404200F0FA
:100988005BFA044B20001D60E5E7C0460400002028
:1009980000000020080000208023084A5B0011683E
:1009A80010B50B4303201360FFF7CEFF041E03D1DD
:1009B800FFF722FF200010BD0124FBE700200240C2
:1009C800034A044B11681B785B1813607047C046D4
:1009D8002003002004000020014B18687047C0461F
:1009E8002003002080684007C00F70470023F0B53F
:1009F80085B004000393984200D1F0E0856D9D42D4
:100A080005D1FFF715FD23005433E5651D708023DC
:100A180025685B05AA681A4200D1A7E00022AB68E6
:100A28000192DB0008D410230126A26D019613431E
:100A3800A365E36D3343E3652800FFF7D3FF102276
:100A4800A36D1340034300D0CCE0A26D674B20692F
:100A58001A400633FF331343A365AB68DB0761D441
:100A6800276BE1687B1E9F41A368A27E0B43217E12
:100A78003F0389030B43617EC9030B4351030B43B7
:100A88009C46002800DB86E04100490823006646B2
:100A98002C331B785B0033433B430B43611CC97FFA
:100AA800012905D1002A00D078E0802252021343A0
:100AB800626A002A05D0E02149000A40A16A0A4377
:100AC8001343EA684A490A401343EB60230062680B
:100AD8003C33E16C1B78970FBF079C463943012BC9
:100AE80008D1236C666C33430B43A16C0B436146FE
:100AF8003B4319432B693F4F3B400B4380212B61FC
:100B080053005B08C9058B420CD080231B069A4210
:100B180008D03949394F0B683B40F027BF033A40AA
:100B280013430B60072170276B69626B8B43134378
:100B38006B616969A36BB9431B010B436B610028A7
:100B480034D11023A96A5B420B43AB6207216B695E
:100B58000B409A4239D10023E365A26D03339A43CF
:100B6800023B1343A365019805B0F0BDAA68244968
:100B78000A401343AB60234B23491868FFF7ACFACC
:100B8800013040000390039B002B00D146E7039BF4
:100B9800013B0393F7E78021890377E72022A76DBC
:100BA8003A43A265E26D1143E16581E780239B0327
:100BB8009842CBD11C21AB6AE369013B9B000B40F7
:100BC8002C3999400B00216EBEE71223A26D9A437F
:100BD800023B1343A3650123E26D1343E36501233D
:100BE8000193C0E7A36D1A43A265F8E7FDFEFFFF76
:100BF8000102FEFF02FCFF1F08270140FFFFC3FFA1
:100C0800E8FFFF6F00000020400D03000023F0B54F
:100C180085B003930300009154331A78040002202E
:100C2800012A4CD0012227691A7025682800FFF78D
:100C3800D9FE002800D0E9E0009B80215B68090606
:100C48009C46042362469F43009B1B68022A00D1EE
:100C5800B0E05A03520B8F4233D1A96A0A43AA6201
:100C6800009A6869926819026B4E0A4032408843BC
:100C780002436A61002B1EDAE021684A6848156859
:100C880049042940834200D07EE0802000040542C8
:100C980011D11368634D2B400B431843624B10600E
:100CA80018686249FFF718FA431C0C205843039050
:100CB800039B002B64D1002000235434237005B01B
:100CC800F0BD1F2167460F401039B940CE43019649
:100CD800266E8E433100002A12D1980E1F32104022
:100CE800B840624608439208E169013220668A42A8
:100CF800B6D8A96A01989A00120FBA400140ADE728
:100D080001221342ECD1921801201342E8D11000BD
:100D180002321342E4D101301A07E1D40130DA0675
:100D2800DED401309A06DBD401305A06D8D401301B
:100D38001A06D5D40130DA05D2D401309A05CFD4B9
:100D480001305A05CCD401301A05C9D40130DA046F
:100D5800C6D401309A04C3D401305A04C0D4013037
:100D68001A04BDD40130DA03BAD401309A03B7D4D7
:100D780080221800D20210401342B1D01220AFE7EF
:100D8800039B013B039393E7294883420BD18020BF
:100D98004004054200D08EE71368224D2B400B43D8
:100DA8001843106087E72348834200D083E78020F8
:100DB800C003EEE78F4204D1AA6A5903490B8A435C
:100DC800AA62002B00DB76E7144A154811688342B3
:100DD80008D1A02310685B040B40124901400B4363
:100DE800136068E71248834203D1C02310681B04CC
:100DF800F2E71048834200D05DE7C0204004136842
:100E08000140084803401943116054E72023A26DAC
:100E180001201343A3654FE700FFFF0708270140A0
:100E2800001000B0FFFF3FFE00000020400D03004F
:100E3800004000B8002000B410B5FF2403220B00C6
:100E480021000240D20091409B012340C9439340B6
:100E580000280ADBC0240B4A800880008018A40000
:100E680002590A401343035110BD0F22104008389D
:100E7800054A800880008018C26911401943C16181
:100E8800F2E7C04600E100E000ED00E08022431EEA
:100E98005204012093420DD2C021074A07485360EB
:100EA800036A09061B021B0A0B430362002007237F
:100EB800906013607047C04610E000E000ED00E06D
:100EC8000023F0B585B00A681400DC4001D105B0F4
:100ED800F0BD012514009D402C4000942A427AD090
:100EE8004A685E0094460322644622400192032227
:100EF800B240019CD243013C012C6ED8CC68876873
:100F0800B44017403C43846044680127AC43250043
:100F1800644624093C409C402C4344608C68C56866
:100F2800B44015402C43C460019C022C5FD0046877
:100F38002240019CB44014430460C0246246A402C9
:100F4800224248D0344A03259C08A400A4180F2242
:100F58001D40ED00AA40A027266EFF0596430022FB
:100F6800B8420CD02D4F0132B84208D02C4F013274
:100F7800B84204D02B4F0332B84200D1023AAA40FB
:100F8800674632432266244C009A2668009DD24365
:100F98003543FF0201D43500154067462560666871
:100FA800009D3543BF0201D4350015406746656092
:100FB8001D4C009DE66F3543BF0301D43500154035
:100FC8006746E567194C009EE56F2E43FF0301D481
:100FD80015402E00E667013375E7019C032CA6D067
:100FE8008C68C568B44015402C43C4609FE707254A
:100FF8000F271D40AD00AF40DC08A400041902947F
:10100800246A03972700039CA7433C000F69AF405D
:101018002743029C27628AE7001802400004005018
:1010280000080050000C0050081802400418024044
:10103800002A01D0816170478162FCE770B5040025
:101048000120002C3FD0250041352B78DAB2002B47
:1010580005D12300403320001A70FFF7ABFA242390
:1010680001212B702368E0681A68A6688A431A6011
:101078001A4962680A401A619A6819490A409A60CE
:10108800012821D18022120232439A605868154AF9
:1010980002435A60DA6800200A40DA60616922690E
:1010A8000A43A16909020A43DA60216AE2690A432C
:1010B8001A60012219680A431A60202360642B70A1
:1010C80020634234207070BD8422120232439A6039
:1010D8000228DBD1802212015A60D7E7FFFFFFF018
:1010E800FF7FFFFF00800002F0B504004134227842
:1010F80003000F000220D6B2202A18D11D00403567
:101108002A78012A13D0242222701B68233A1968EE
:10111800074891431960196801400020196019684F
:101128003943196019680A431A6026702870F0BD9F
:10113800FFEFFFFF0200F0B5413214780300E5B27B
:101148000220202C17D11C0040342678012E12D002
:10115800223010701B6823381E68074F86431E60B4
:101168001E6809023E403143196019680843186037
:10117800002015702070F0BDFFF0FFFF10B5114C76
:101188001149236802000B40034323608023002099
:101198009B009A420ED10D4B0D49186806235843FF
:1011A800FEF79AFF8022431CD200616908001040B4
:1011B800114200D110BD002B01D0013BF5E70320FF
:1011C800F8E7C04600700040FFF9FFFF000000206C
:1011D80040420F00F0B5040085B0002802D101207C
:1011E80005B0F0BD0368DB0710D423689B075CD407
:1011F80023681B0700D5C1E023685B0700D5F2E030
:10120800E369002B00D079E10020E9E73822AF4DEF
:10121800AB681340EA68102B09D1D3439B0708D168
:101228002B689B03E1D56368002BDED1D7E7082B39
:10123800F6D0802263685202934211D12A68134380
:101248002B60FFF7C9FB80270600BF022B683B42D3
:10125800CBD1FFF7C1FB801B6428F7D90320BFE778
:10126800A021C9028B4208D180232968DB020B43E5
:101278002B602B681A432A60E3E72A6894490A40DE
:101288002A602A6893490A402A60002BD9D1FFF7BF
:10129800A3FB80270600BF022B683B42A5D0FFF7BF
:1012A8009BFB801B6428F7D9D8E73822874DAB68A9
:1012B8001340EA68102B28D103210A40022A26D1BC
:1012C8002A68520503D5E268002A00D187E76968D1
:1012D80062698148120201400A436A60002B0CD1FE
:1012E8002B687E4A7E491340226913432B602B6882
:1012F8007C4A9B045B0FDA400A607B4B1868FFF757
:1013080023FB002800D173E769E7002BD8D0E368F6
:10131800002B20D02B68714A802713402269FF00D8
:1013280013432B6080232A685B0013432B60FFF76D
:1013380053FB06002B683B4207D06A68636966491D
:101348001B020A4013436B6052E7FFF745FB801B03
:101358000228EFD982E72B68644A802713402B6064
:10136800FFF73AFB0600FF002B683B4200D13FE73E
:10137800FFF732FB801B0228F6D96FE73822534D5E
:10138800AB681340182B08D12B6E9B0700D433E7AA
:10139800A369002B00D02FE721E7A2690123002AC7
:1013A80010D02A6E022713432B66FFF715FB0600A1
:1013B8002B6E3B4200D01FE7FFF70EFB801B022875
:1013C800F6D94BE72A6E02279A432A66FFF704FBF1
:1013D80006002B6E3B4200D10EE7FFF7FDFA801B9B
:1013E8000228F6D93AE73822384DAB681340202B4B
:1013F80008D1EB6D9B0700D402E7A368002B00D04F
:10140800FEE6ECE680220021EB6B520500911342C8
:1014180008D1EB6B1343EB63EB6B13400393039B14
:10142800012300938027324E7F0033683B4215D05A
:10143800A368012B22D1EA6D1343EB65FFF7CCFAC1
:1014480002270600EB6D3B4238D0009B012B00D0F1
:10145800D6E6EB6B274A1340EB63D1E633683B4390
:101468003360FFF7B9FA019033683B42E0D1FFF7E8
:10147800B3FA019BC01A0228F6D9EFE6EA6D052BEC
:1014880005D1013B1343EB65EA6D0123D4E7012144
:101498008A43EA65EA6D03318A43EA65002BCDD1B8
:1014A800FFF79AFA02270600EB6D3B42CDD0FFF713
:1014B80093FA114B801B9842F6D9CFE6FFF78CFAC6
:1014C8000D4B801B9842BDD9C8E6C04600100240AB
:1014D800FFFFFEFFFFFFFBFFFF80FFFFFFC7FFFFD0
:1014E800000000200024F40008000020FFFEFFFF99
:1014F80000700040FFFFFFEF8813000038213F4DC8
:10150800AA680A40102A51D03D4A022B38D12B68CC
:10151800802713402B60FFF75FFA0600BF042B6893
:101528003B4227D1616A236AEA680B433549802622
:101538000A401343E26AB6041343226B1343A26AB8
:1015480012021343EB6080232A685B0413432B6069
:101558008023EA685B051343EB60FFF73DFA04005C
:101568002B68334200D04FE6FFF736FA001B0228FB
:10157800F6D973E6FFF730FA801B0228CFD96DE65B
:101588002B68802613402B60FFF726FA0400B60468
:101598002B68334204D1EB681B4A1340EB6033E6F7
:1015A800FFF71AFA001B0228F2D957E6012B00D1DF
:1015B80015E60322E868216A02408A4200D00EE656
:1015C8007022616A02408A4200D008E6FE21A26ABF
:1015D800C90101401202914200D000E6F822E16AF6
:1015E800920302408A4200D0F9E5236B400F40077E
:1015F800C01A431E9841C0B2F2E5C046001002402E
:10160800FFFFFFFE8C80C11FFCFFFEEF382370B583
:101618001D4CA2681A4205D123681C489B045B0F25
:10162800D84070BDA2681A40082A27D0A2681A407C
:10163800102A17D1E368E168DB43E5684906490FDA
:101648006F322D0A013115409B0709D11048FEF76A
:1016580043FDE1686843490F0131FEF73DFDE0E7CE
:101668000A48F4E7A2681A40202A09D0A268002094
:101678001340182BD5D1FA20C001D2E70448D0E78F
:1016880080200002CDE7C046001002400024F4008C
:1016980000127A00F7B504000D00002801D10120DE
:1016A800FEBD07274A4E33683B408B422AD3226847
:1016B80093073BD4D20748D4072733683B40AB4253
:1016C8000AD93368BB432B433360FFF785F9019090
:1016D80033683B40AB426BD123683E4D5B076FD408
:1016E800FFF794FFAB683C491B051B0F9B005B5839
:1016F8001F210B40D840394A394B10601868FFF752
:1017080023F9CDE73368BB430B433360FFF764F934
:10171800019033683B40AB42C9D0FFF75DF9019BAC
:10172800C01A304B9842F4D90320B9E72949530726
:1017380004D5E0238868DB0103438B608B682A4863
:101748000340A06803438B60B4E76268214F012A15
:1017580019D13B689B03A2D50721BB688B43134370
:10176800BB60FFF739F901903823BA681A406368FB
:10177800DB009A42A0D0FFF72FF9019BC01A194B42
:101788009842F1D9D0E7022A03D13B689B01E3D400
:1017980085E7002A03D13B685B05DDD47FE7022398
:1017A800032A03D1396E1942D6D178E7F96DFAE7E1
:1017B800FFF712F9019BC01A0A4B984288D9B3E780
:1017C800AB680A4A1340E2681343AB6088E7C04637
:1017D8000020024000100240C02F00080000002036
:1017E8000800002088130000FFF0FFFFFF8FFFFFB5
:1017F800064B07499B68074A5B045B0F9B005B58D5
:101808001F2110680B40D8407047C04600100240A6
:10181800A02F000800000020F0B50368050085B07F
:1018280000209B0351D58022484C5205E36B009061
:10183800134208D1E36B1343E363E36B1340039351
:10184800039B012300938027414E7F0033683B436D
:101858003360FFF7C1F8019033683B4227D0E16D50
:10186800C022080092006B691040114217D09842BC
:101878000CD0E36D374AE16D1340802252020A43CF
:10188800E265E26D34490A40E265E365DB0706D5A7
:10189800FFF7A2F802270600E36D3B424ED0E36D46
:1018A8002C4A002013406A691343E36506E0FFF7FA
:1018B80093F8019BC01A0228CED90320009B012B64
:1018C80003D1E36B254A1340E3632A68D30706D59F
:1018D80003241E494B6DA3436C6823434B65930651
:1018E80006D51A491E4C4B6D2340AC6823434B6503
:1018F80053040FD515492C694B6D9B009B08234356
:101908004B658023DB059C4204D18023CC685B02B5
:101918002343CB6012050FD50C4A124C536DE9686E
:1019280023400B4353658023DB01994204D1802374
:10193800D1685B020B43D36005B0F0BDFFF74CF8EC
:10194800094B801B9842A7D9B7E7C0460010024050
:1019580000700040FFFCFFFFFFFFFEFFFFFFFFEFEF
:10196800FFCFFFFFFF3FFFFF88130000A0210268A1
:10197800F8B5D36804008B43D360FFF72DF8FA2736
:1019880005002026BF002368DB68334201D0002011
:10199800F8BDFFF721F8401BB842F4D90320F7E758
:1019A800F7B5402603680500DA680024324211D1F1
:1019B8008022D968FA270A43DA60FFF70DF8BF00DA
:1019C80000902B68DB681A0032400192334201D143
:1019D800032C01D12000FEBDFEF7FEFF009B019CF9
:1019E800C01AB842EDD92B00032429331C70E8E74C
:1019F800802270B50F4C0500E3689343E360A36948
:101A0800603A134207D1FFF7B1FF002802D0032044
:101A18002935287070BDA3699343A361FFF7A6FF1A
:101A2800002802D00320293528702023A2691343F7
:101A3800A361EFE70028004070B504000120002CE6
:101A48001DD0250029352B78DAB2002B08D12300C8
:101A580028331A7088231B0220006360FEF74AFEB1
:101A68000223CA222B70236820005A62773A5A62EE
:101A7800FFF796FF2368002802D0FF225A6270BD44
:101A88009A69164960690A409A61A268996902438D
:101A9800E06902430A439A61226920001A61E268F8
:101AA800196912040A431A61FFF7A2FF2268002885
:101AB80010D19369266ADB00DB089361636AA46925
:101AC8009169334323430B439361FF235362FE3BE6
:101AD8002B70D4E7FF235362D1E7C046BFFF8FFBCB
:101AE800F8B504000120002C66D0636A002B64D18D
:101AF800822261685200914200D0E36100232500F0
:101B0800A3625D352B78DAB2002B05D123005C3354
:101B180020001A70FEF742FE022340222B70216833
:101B2800E6680B689343E0220B60D20000239642DC
:101B380047D880204001964200D0A36282228427A1
:101B4800636852001340A2683F023A4002271343D9
:101B58002269A5693A4013430122676917403B434C
:101B68008027BF002F403B43E769373217403B438C
:101B7800276A4832174080223B43A76A92011740E0
:101B88003B43102708220B60636A2D0C3B40676BB0
:101B980017403B43F0273F013E403343042635407E
:101BA8002B4303434B60CB69084803400020CB61BB
:101BB800012320665D342370F8BD0023236163612F
:101BC8009CE7F02218001201B5E7C046FFF7FFFFB7
:101BD80070B504002569A168026829436569C3696D
:101BE80029431068474D1943284001431160516843
:101BF8004548256A0140E06801435160A169906841
:101C08002943424D284001430F209160D16A814306
:101C1800606A0143D1623E498A4215D103213D4A97
:101C2800526D0A40013A022A11D83B49885C802249
:101C3800120293423DD1082813D8FEF743FA0C123A
:101C48001C12191212121D0034498A4209D180222D
:101C5800120293424BD1FFF7CBFD031E0CD100209B
:101C680000E001202E4BA36600232367636770BD45
:101C7800FFF7CCFCF1E72B4B616A2B4A4900895AE4
:101C88001800FEF729FA656840006B08C01829009B
:101C9800FEF722FA0200254B103A9A42E1D80F23A8
:101CA800020000079A4393B2400F22680343D360AF
:101CB800D5E70828D5D8FEF7FBF91AD405D41FD4E0
:101CC800D4D422001748626A174B5200D15AFEF743
:101CD80003FA65686B08C0182900FEF7FDF90200D1
:101CE800124B103A9A42BCD82368D860B7E7FFF77E
:101CF8007FFD0028B3D0E6E7FFF788FCF9E78020EE
:101D08000002E0E7F369FFCFFFCFFFFFFFF4FF1109
:101D18000038014000100240003000080044004034
:101D2800010001000024F40004300008EFFF000067
:101D3800836A30B5DA0706D50168284C4A6822401C
:101D4800C46A22434A609A0706D50168244C4A6847
:101D58002240046B22434A605A0706D50168214C89
:101D68004A682240446B22434A601A0706D5016834
:101D78001D4C4A682240846B22434A60DA0606D525
:101D880001681A4C8A682240C46B22438A609A060A
:101D980006D50168164C8A682240046C22438A6082
:101DA8005A0610D50168134D4A68446C2A402243EC
:101DB8004A6080225203944205D14A680E4C224060
:101DC800846C22434A601B0606D502680B49536897
:101DD8000B40C16C0B43536030BDC046FFFFFDFF95
:101DE800FFFFFEFFFFFFFBFFFF7FFFFFFFEFFFFF90
:101DF800FFDFFFFFFFFFEFFFFFFF9FFFFFFFF7FF83
:101E0800F8B504000D0017001E002268D3692B40A6
:101E18005B1B59424B41BB4201D000202AE0069B84
:101E28000133F3D0FEF7D8FD069B801B984201D8FA
:101E3800002B20D1EFF31080012282F31088216853
:101E4800214D0B682B400B6080F31088EFF3108056
:101E580082F3108821688B6893438B6080F3108825
:101E680023001F320833DA6780331A600023032007
:101E780080342370F8BD23681A685207C5D58022BC
:101E8800D96912011142C0D01A62EFF31080012201
:101E980082F3108821680C4D0B682B400B6080F38F
:101EA8001088EFF3108082F3108821688B689343C1
:101EB8008B6080F31088220020230832D367803299
:101EC80013605360D2E7C0465FFEFFFF030073B59F
:101ED800002604008C331E60FEF77EFD2368050093
:101EE8001B681B0719D423681B685B070AD5802168
:101EF800104B0022009320002B00C903FFF780FF3E
:101F0800002815D12200202300200832D367803210
:101F18001360E066803420700BE08021054B3200AE
:101F28000093890303002000FFF76AFF0028DAD036
:101F3800032076BDFFFFFF0170B5041E01D101200B
:101F480070BD05000835EB6F002B04D1020080320C
:101F58001370FEF7B9FC242301212268EB6713688C
:101F680020008B431360FFF733FE0128E7D0A36AF4
:101F7800002B02D02000FFF7DBFE236807495A68D0
:101F880020000A402A215A609A688A439A600122EE
:101F980019680A431A60FFF799FFD1E7FFB7FFFFF7
:101FA800F7B50700436E04006A37002B04D10120FF
:101FB800388068342080F7BD03680B4E9A689B68A8
:101FC8000A4D5B0FF05CE95CC0000192FEF7CAF8AD
:101FD800019B38801B015B0FF05CE95CC000FEF7D9
:101FE800C1F880B2E5E7C046243000081C3000087C
:101FF80070B504008034227803000220012A11D031
:102008001D00242201260835EA671A68116810683D
:10201800B043106004480140002058662023116036
:10202800EB67207070BDC046FFFFFFDFF8B5050005
:1020380080350B0029780222012915D006000121DC
:10204800046808362232F267276822688A432260C9
:10205800A168C900C9081943A160FFF7A1FF20239F
:1020680000222760F3672A701000F8BDF8B5050054
:1020780080350A0029780223012915D0060001219C
:10208800046808362233F367276823688B43236084
:10209800A168064B19401143A160FFF781FF202377
:1020A8002760F36700232B701800F8BDFFFFFFF1CE
:1020B8000D488546FEF7D0FB0C480D490D4A002314
:1020C80002E0D458C4500433C4188C42F9D30A4AE5
:1020D8000A4C002301E013600432A242FBD300F053
:1020E8006BFEFEF7C9FAFEE7002000200000002082
:1020F80034010020E030000834010020F8050020F9
:10210800FEE703685A0004D5802212061343C0185C
:1021180070475B005B08FAE7F0B585B015000E1E46
:10212800029015D000274B1E01930093009BFB18CB
:10213800DC0FE4186410E3000393029BE2009E188E
:102148003000FFF7DEFF019BA34204D1A84204D868
:10215800300005B0F0BDA84204D9A7420DD0631ED7
:102168000093E3E70398029B08301818FFF7C9FFAC
:102178000138A842ECD2671CD8E70026E8E700003F
:1021880003000548012B06D00448022B03D0002089
:10219800834200D10248704787270008912700082A
:1021A8007D2700081E4B37B505008C1E002B08D074
:1021B800200001A900E000BF002807D10023092062
:1021C80024E0184B18481B1ADB10019322000199D0
:1021D800FFF7A2FF041EF1D0FFF793FF6268A8641F
:1021E800012A1AD00123201D002A02DBFFF789FFEC
:1021F80000232B650368E864002B09DA1801000F37
:10220800FFF7BEFF030000208342D7D02B613EBDFD
:10221800FFF777FF03000020F8E700230520F5E724
:1022280000000000D43000082C300008036810B506
:102238000400DA0704D448309B0719D5FEF702F8E2
:1022480023685B0703D42000D030FDF7FFFF236825
:102258001B0704D420005130FF30FDF7FBFF236833
:10226800DB0604D42000D130FF30FDF7F7FF10BDA6
:10227800FDF7E4FFE4E703000068002800D0C01879
:102288007047704770B505000C002800216CFFF7F7
:1022980089FF061E01D000F0DFFC236C22006B6171
:1022A800290001202B6998470828EED00728F2D189
:1022B8003000216CFFF7E5FF201DFDF7A9FF0000A6
:1022C800F0B52B4CC368A54404938369050014003A
:1022D8000431402207A8059300F0AAFD002306AEAA
:1022E800069302932800316CFFF75CFF093407005E
:1022F8000390E4B200282FD1F022336C31006B61D7
:1023080052007EA800F094FD2B69290020007EAAC7
:1023180098478C9B02907364059B210001932A00C7
:102328002B000120049C0096A047002818D1002FFC
:1023380018D1F022300052007EA900F079FD029BEE
:102348003C00082BCED0072B0AD13800316CFFF7A0
:1023580098FF07A8FDF75CFF10231C43B36BDAE76F
:10236800092303930398F7239B009D44F0BDC046BF
:1023780024FCFFFF70B5CB6BF8B00B6404000D00B4
:102388004022043101A800F053FD01235B42009371
:1023980020001099FFF706FF00280FD16A46210098
:1023A8002369984706000828F2D06846FFF73EFFE1
:1023B800062E03D129002000FFF764FF092078B01A
:1023C80070BD10B58261DA6BC1601A641900002211
:1023D800FFF776FF10BD70B54369C66805000C00AD
:1023E8000B64002E04D00122FFF76AFF00F034FCD2
:1023F8000A000369010002209847072805D0082829
:10240800F4D121002800FFF73DFF3000216CFFF7D1
:1024180038FF201DFDF7FCFEC36810B5002B02D164
:10242800FFF7A8FF10BDCB6B00220B64FFF748FF36
:10243800F8E710B504000800012907D007D90123DF
:102448000338C0B2834280414042C01810BD022008
:10245800002BFBD10F2AF9D88240A4186168029A90
:1024680018001160F2E71FB503AB009300230A00C0
:102478001900FFF7DEFF039805B000BD10B5040092
:102488000800012907D007D901230338C0B28342C5
:1024980080414042C01810BD0220002BFBD10F2AFA
:1024A800F9D882400299A418096818006160F2E717
:1024B8001FB503AB0093002303920A001900FFF72E
:1024C800DDFF05B000BD000070B5184CD36BA54406
:1024D800136404000D0017A8111D402200F0A8FC89
:1024E80001235B42169368462699FFF75BFE002896
:1024F80013D10C2116A86A46FFF7DAFF290016A89F
:10250800A047002809D16946049B16AA08309847B5
:102518000600052802D00928E5D1092616A8FFF7E4
:1025280085FE30008E239B009D4470BDC8FDFFFFD3
:10253800F0B58BB00393009203000322CD6C1340D7
:102548000C000193039908CD089500292DD11B0291
:10255800079306AB5973130007AA1372019B022B4A
:1025680000D1A56B01220121236D1A400B4226D10F
:1025780008231840059004922B680293002B27D15A
:10258800009807A900F040FA002857D1049B002BB7
:102598001BD00F210098FFF766FF0E21020000985C
:1025A800FFF786FF724A0F218EE01A0C06A94A73BC
:1025B800D2B21B0492000793AD180223CCE700980F
:1025C80007A900F021FA002838D108200BB0F0BD87
:1025D800039B022B34D16E68083501223700A36CA7
:1025E80097430F210098FF18FFF73DFF002387420C
:1025F80006D80122029B9343DB1998429B415B4218
:102608000222012176001640029A0A4016438E42A1
:102618001DD0022E5FD0002E10D1019A2F1D002A46
:1026280013D0002B11D02800FFF76BFDA76305001E
:10263800200000E000BF2A000028B4D10920C5E727
:102648002B8802936E880435C7E73D0094E7019A0A
:10265800002A25D1002B3CD02F686B68FF0F9A1CED
:10266800ECD022005832069201330AD0281DFFF719
:1026780002FE3A00010006AB200000E000BF061E83
:1026880027D00D210098FFF7EEFE069B2062022E50
:1026980002D1E36223002C3306206362A56295E72A
:1026A8000D210098266AFFF7DEFE864211D1A36A43
:1026B8009D420ED12800FFF724FD0F21020000984B
:1026C800FFF7F6FE220000210098FFF7F1FE072031
:1026D8007CE7083550E72A6852005708019A002A13
:1026E8002AD1002B16D0059B002B1BD0002F11D10F
:1026F800019E18E023000136B000583328180693CD
:10270800FFF7B9FD0022010006AB200000E000BF82
:10271800002808D02B68002B00DA04350137BF00E9
:10272800ED1929E7059EBE42E4D10D210098FFF777
:102738009AFE069B2062AFE70D210098266AFFF7F4
:1027480092FE8642E6D1A36A9D42E3D10423002685
:102758002363EB18A762E66263632B68B34203DA6C
:102768000137B8002818A6E701230493D6E7C04626
:102778000000000010B50023FFF7DAFE10BD10B509
:102788000123FFF7D5FE10BD10B50223FFF7D0FED9
:1027980010BDF0B50500140008001E00C5B00429DE
:1027A80024D8FDF7D7FD05001C002300C800F10060
:1027B800002B1BD1AB6B92B2281D0127B7403A42C0
:1027C80004D080CBBC466146B700C1510136102EFB
:1027D800F3D1A40400D4AB63002045B0F0BD170CBE
:1027E80094B2012B04D13B19102B3AD90220F4E7FB
:1027F800052BFBD139192029F8D80F2F49D9002CDE
:10280800EAD004222B68134271D0280093432B602E
:10281800D030FDF71DFD0F2F69D822A8FDF714FD54
:1028280002A8FDF715FD1023DB1B5B00F90022A8A9
:10283800AA6B4118013B002001339B0001931358F8
:102848000B50019B04308342F9D1D218002C52D18D
:10285800012E18D0AA630F2FBED822A8FDF7F2FCCC
:10286800BAE7102FC2D02B68334206D003222800C3
:1028780093432B604830FDF7E3FC22A8FDF7E0FC0A
:10288800AA6B002C19D10432AA6322A8FDF7D6FC42
:10289800A2E701222B68102907D910390C0013422E
:1028A8001BD15A07B9D50422AFE713420CD122A88D
:1028B800FDF7CAFCAA6B002CCFD06300F90022A850
:1028C80000244118013BB6E7934302222800134332
:1028D8002B604830FDF7B8FCE9E793430222280053
:1028E80013432B604830FDF7AFFC2B68D9E702A8EB
:1028F800FDF7AEFCAA6B3B006400102F00D210233A
:10290800103B02A9DB005B180021013C0134A40044
:102918005058585004318C42FAD11219012EB2D0B5
:10292800AA630F2F03D902A8FDF790FC54E722A849
:10293800FDF788FCF7E7032B00D057E7160C94B295
:102948003319102B00D951E708222B68134206D0FF
:102958002800934351302B60FF30FDF77DFC22A8FF
:10296800FDF77AFCAB6BF600E400F61A22AA1C19F4
:1029780092199C4204D1AC6322A8FDF76BFC2BE7AB
:102988001968D1500433F4E7002B00D02EE7102A41
:1029980000D92BE710222B68134206D02800934356
:1029A800D1302B60FF30FDF75BFC22AE3000FDF725
:1029B80057FC00220121AB6B08009040044202D072
:1029C80080CB900037500132042AF5D13000AB6338
:1029D800FDF744FC00E7027A0300002A11D1427A8D
:1029E800B020002A0CD0013A5A725A68111D126898
:1029F80059601A6003221A721A68100E12021A60BD
:102A08007047013AD2B2F6E7F0B50023050087B067
:102A1800029103930298FFF7DEFF0400B02813D158
:102A2800039B002B0DD105AC19000E222800009441
:102A3800FFF7FFFC039B0F22190028000094FFF703
:102A48001DFD002007B0F0BD030619D4FF23860042
:102A58001E40002305AF0D22190028000097FFF73C
:102A6800E8FC059A0436B318640600D5931B059351
:102A780000230D22190000972800FFF7FFFCC9E783
:102A880003000F229343DBB2802B18D10402029873
:102A9800FFF7A1FF802620433602B04201D109206A
:102AA800D0E7002307010005020C19002800FFF7F2
:102AB80070FE0028F3D13742ACD00123A9E7902B50
:102AC8000ED10D2603003340B342E8D000230F2275
:102AD80005AF0240190028000097FFF7AAFCC7E7D6
:102AE800A02B14D1FF2109010A00993B83431A4105
:102AF8000A40240702D58023DB011A43002319006A
:102B08002800FFF746FE002800D183E7C7E7B02B6F
:102B18004AD1B12808D10298FFF75DFF431EDBB206
:102B280002000E2BEAD9BAE7B22824D1002305AC5B
:102B38000D22190028000094FFF77BFC0298FFF78C
:102B48004AFF022680277F2301000340B340059AED
:102B58003940384208D1812080001218D2180592D5
:102B68000B000D22009487E7D218029805920736C9
:102B7800FFF731FFE7E7B3280CD10298FFF72BFFE7
:102B8800F0220303120313400F22024001321A43BA
:102B98000123B4E7FC230340B42B80D00723802211
:102BA800034001331203F2E7C02B47D1C6280CD1EA
:102BB8000298FFF710FFF0220303120313400F22BD
:102BC800024001321A43032399E7C7280BD1029820
:102BD800FFF701FF431EDBB202000E2B00D95EE7B0
:102BE800002304218CE7F8230340C02B05D1A02241
:102BF800B13B034001331203E4E7C8280ED1029821
:102C0800FFF7E9FE0F2302009A43D2B218401032B0
:102C18001203013002430A3B012171E7C92800D0A1
:102C28003DE70298FFF7D7FEF02203031203134093
:102C38000F22024001321A430523EDE70722030061
:102C48009343DBB2D02B00D029E714408022013413
:102C580012032243CB3BDFE7062010B500F060F8F3
:102C68000120FDF7F3FDC04610B501000023002246
:102C7800002000F025F910BDF0B50500830749D004
:102C8800541E002A45D003000326CAB202E00135CB
:102C9800013C3ED301332A703342F8D1032C30D99A
:102CA800FF220A401502AD182A04AD180F2C34D99A
:102CB8002700103F3F093E01B4461E001A00103697
:102CC8006644156055609560D56010329642F8D11B
:102CD80001373F01DB190F270C22274022403C0017
:102CE800002A0ED03E1FB608B400A4461A001C1DC8
:102CF800644420C2A242FCD103240136B6009B19C9
:102D08003C40002C05D0C9B21C19197001339C42F3
:102D1800FBD1F0BD03001400C0E72700E2E7C0467E
:102D2800154B70B504001D681F281FD88C235B0045
:102D3800EB58002B0DD082009B181A68002A08D087
:102D4800012A04D0511C0DD00021196090470020A1
:102D580070BD280000F026F822000100280000F0CD
:102D68000DF8F5E7162301202B60F1E71623012063
:102D78002B604042ECE7C0460C000020002370B5F1
:102D8800074D0400080011002B60FDF757FD431C98
:102D980000D070BD2B68002BFBD02360F9E7C0463C
:102DA8005C04002010B5FDF747FD10BD014B186805
:102DB8007047C0460C00002070B50D4B0D4D5E1BD2
:102DC800B610AB4205D0002408CD01349847A6427E
:102DD800FAD800F0D5F8084B084D5E1BB610AB4288
:102DE80005D0002408CD01349847A642FAD870BD12
:102DF800D4300008D4300008DC300008D430000893
:102E080070B5074C074D641BA41005D0013CA30006
:102E1800EB589847002CF9D100F0B8F870BDC046BF
:102E2800E0300008DC3000087047C0467047C046F4
:102E3800F0B505000F2A33D90324030026000B43FD
:102E48001E401C4237D11500103D2D0903000C000F
:102E5800AC462F013F1865685D60A5689D60E56810
:102E6800DD60256810341D601D001033BD42F2D1AD
:102E780065460F230C2401352D01491913404519C6
:102E880014421AD08C59AC5104369C1B032CF9D827
:102E9800043B9B0801339B00ED18C91803231A4013
:102EA800561E002A06D00023CC5C1A00EC540133CD
:102EB8009642F9D1F0BD561EF5E71A00F0E7C04674
:102EC800F0B5D6464F4646469846244BC0B5060050
:102ED80018689A460F009146FFF7A6FF204B1D6819
:102EE800002D32D053466C6818681F2C30DC002E39
:102EF8000CD1631C0234A4006B606751FFF796FF86
:102F08000020E0BCBA46B146A846F0BD4946882232
:102F1800A300EB189950C42149008C46AC44614683
:102F2800873AA2400968914611436246116084219C
:102F3800424649005A50022EDBD129004A468D31BB
:102F4800FF310B6813430B60D3E7064D1D60C9E7DB
:102F5800FFF76CFF01204042D3E7C0463001002054
:102F6800F405002064040020034B10B5002B02D0A8
:102F78000248FFF779FE10BD00000000092E000886
:102F8800F8B5C046F8BC08BC9E467047F8B5C046C0
:082F9800F8BC08BC9E4670471E
:102FA0000000000000000000000000000000000021
:102FB0000100000002000000030000000400000007
:102FC0000000000000000000000000000000000001
:102FD00000000000000000000000000000000000F1
:102FE00001000000020000000300000004000000D7
:102FF00006000000070000000800000009000000B3
:1030000004020800010002000400060008000A0093
:103010000C001000200040008000000108040204A1
:0C3020000801010101010103070100008B
:10302C008CD3FF7F01000000ECD5FF7F0084128061
:10303C0044D6FF7FA80FB1807CD6FF7F0100000033
:10304C0060F1FF7FA907B180E0F1FF7FB0B0A880ED
:10305C0022F2FF7F0100000028F2FF7FB0B0AA80AF
:10306C005CF2FF7FAB76B28008F3FF7FAA3F37801C
:10307C004EF3FF7FB0B0A8805AF3FF7FB0B0AA80A8
:10308C0094F3FF7FB0B0A880A6F3FF7F010000008F
:10309C0034F4FF7FAA0DB28094F4FF7FB0AB0A80AA
:1030AC00D0F6FF7FB0B0A880E6F6FF7FAB3F048080
:1030BC0022F9FF7F010000004CF9FF7FB0AB0680C6
:0830CC0094FBFF7F01000000EE
:0830D400712F000899030008A8
:0430DC007103000874
:1030E0000024F40001000000040000001000002093
:1030F00000000000240300208C030020F4030020C3
:1031000000000000000000000000000000000000BF
:1031100000000000000000000000000000000000AF
:10312000000000000000000000000000000000009F
:10313000000000000000000000000000000000008F
:10314000000000000000000000000000000000007F
:10315000000000000000000000000000000000006F
:10316000000000000000000000000000000000005F
:10317000000000000000000000000000000000004F
:10318000000000000000000001000000000000003E
:103190000E33CDAB34126DE6ECDE05000B00000003
:1031A000000000000000000000000000000000001F
:1031B000000000000000000000000000000000000F
:1031C00000000000000000000000000000000000FF
:1031D00000000000000000000000000000000000EF
:1031E00000000000000000000000000000000000DF
:1031F00000000000000000000000000000000000CF
:1032000000000000000000000000000000000000BE
:043210006004002036
:04000005080020B916
:00000001FF
